{
  "contracts/JumpInterestRateModel.sol": {
    "JumpInterestRateModel": {
      "abi": [
        {
          "inputs": [
            {
              "internalType": "uint256",
              "name": "baseRatePerYear",
              "type": "uint256"
            },
            {
              "internalType": "uint256",
              "name": "multiplierPerYear",
              "type": "uint256"
            },
            {
              "internalType": "uint256",
              "name": "jumpMultiplierPerYear",
              "type": "uint256"
            },
            {
              "internalType": "uint256",
              "name": "_kink",
              "type": "uint256"
            },
            {
              "internalType": "uint256",
              "name": "blocksPerYear",
              "type": "uint256"
            }
          ],
          "stateMutability": "nonpayable",
          "type": "constructor"
        },
        {
          "anonymous": false,
          "inputs": [
            {
              "indexed": true,
              "internalType": "uint256",
              "name": "baseRatePerBlock",
              "type": "uint256"
            },
            {
              "indexed": true,
              "internalType": "uint256",
              "name": "multiplierPerBlock",
              "type": "uint256"
            },
            {
              "indexed": false,
              "internalType": "uint256",
              "name": "jumpMultiplierPerBlock",
              "type": "uint256"
            },
            {
              "indexed": true,
              "internalType": "uint256",
              "name": "_kink",
              "type": "uint256"
            }
          ],
          "name": "NewJumpRateModelVars",
          "type": "event"
        },
        {
          "anonymous": false,
          "inputs": [
            {
              "indexed": true,
              "internalType": "address",
              "name": "previousOwner",
              "type": "address"
            },
            {
              "indexed": true,
              "internalType": "address",
              "name": "newOwner",
              "type": "address"
            }
          ],
          "name": "OwnershipTransferred",
          "type": "event"
        },
        {
          "inputs": [],
          "name": "BLOCKS_PER_YEAR",
          "outputs": [
            {
              "internalType": "uint256",
              "name": "",
              "type": "uint256"
            }
          ],
          "stateMutability": "view",
          "type": "function"
        },
        {
          "inputs": [],
          "name": "baseRatePerBlock",
          "outputs": [
            {
              "internalType": "uint256",
              "name": "",
              "type": "uint256"
            }
          ],
          "stateMutability": "view",
          "type": "function"
        },
        {
          "inputs": [
            {
              "internalType": "uint256",
              "name": "cash",
              "type": "uint256"
            },
            {
              "internalType": "uint256",
              "name": "totalBorrowAmount",
              "type": "uint256"
            },
            {
              "internalType": "uint256",
              "name": "reserves",
              "type": "uint256"
            }
          ],
          "name": "getBorrowRate",
          "outputs": [
            {
              "internalType": "uint256",
              "name": "",
              "type": "uint256"
            }
          ],
          "stateMutability": "view",
          "type": "function"
        },
        {
          "inputs": [
            {
              "internalType": "uint256",
              "name": "cash",
              "type": "uint256"
            },
            {
              "internalType": "uint256",
              "name": "totalBorrowAmount",
              "type": "uint256"
            },
            {
              "internalType": "uint256",
              "name": "reserves",
              "type": "uint256"
            },
            {
              "internalType": "uint256",
              "name": "reserveFactor",
              "type": "uint256"
            }
          ],
          "name": "getSupplyRate",
          "outputs": [
            {
              "internalType": "uint256",
              "name": "",
              "type": "uint256"
            }
          ],
          "stateMutability": "view",
          "type": "function"
        },
        {
          "inputs": [],
          "name": "jumpMultiplierPerBlock",
          "outputs": [
            {
              "internalType": "uint256",
              "name": "",
              "type": "uint256"
            }
          ],
          "stateMutability": "view",
          "type": "function"
        },
        {
          "inputs": [],
          "name": "kink",
          "outputs": [
            {
              "internalType": "uint256",
              "name": "",
              "type": "uint256"
            }
          ],
          "stateMutability": "view",
          "type": "function"
        },
        {
          "inputs": [],
          "name": "multiplierPerBlock",
          "outputs": [
            {
              "internalType": "uint256",
              "name": "",
              "type": "uint256"
            }
          ],
          "stateMutability": "view",
          "type": "function"
        },
        {
          "inputs": [],
          "name": "owner",
          "outputs": [
            {
              "internalType": "address",
              "name": "",
              "type": "address"
            }
          ],
          "stateMutability": "view",
          "type": "function"
        },
        {
          "inputs": [],
          "name": "renounceOwnership",
          "outputs": [],
          "stateMutability": "nonpayable",
          "type": "function"
        },
        {
          "inputs": [
            {
              "internalType": "address",
              "name": "newOwner",
              "type": "address"
            }
          ],
          "name": "transferOwnership",
          "outputs": [],
          "stateMutability": "nonpayable",
          "type": "function"
        },
        {
          "inputs": [
            {
              "internalType": "uint256",
              "name": "baseRatePerYear",
              "type": "uint256"
            },
            {
              "internalType": "uint256",
              "name": "multiplierPerYear",
              "type": "uint256"
            },
            {
              "internalType": "uint256",
              "name": "jumpMultiplierPerYear",
              "type": "uint256"
            },
            {
              "internalType": "uint256",
              "name": "_kink",
              "type": "uint256"
            }
          ],
          "name": "updateJumpRateModel",
          "outputs": [],
          "stateMutability": "nonpayable",
          "type": "function"
        }
      ],
      "evm": {
        "bytecode": {
          "linkReferences": {},
          "object": "60a06040523480156200001157600080fd5b50604051620013e5380380620013e58339818101604052810190620000379190620003dd565b620000576200004b6200007f60201b60201c565b6200008760201b60201c565b6200006c85858585856200014b60201b60201c565b80608081815250505050505050620005f4565b600033905090565b60008060009054906101000a900473ffffffffffffffffffffffffffffffffffffffff169050816000806101000a81548173ffffffffffffffffffffffffffffffffffffffff021916908373ffffffffffffffffffffffffffffffffffffffff1602179055508173ffffffffffffffffffffffffffffffffffffffff168173ffffffffffffffffffffffffffffffffffffffff167f8be0079c531659141344cd1fd0a4f28419497f9722a3daafe3b4186f6b6457e060405160405180910390a35050565b8085620001599190620004c3565b600181905550620001868282620001719190620004fb565b85620001a760201b620005591790919060201c565b60028190555080836200019a9190620004c3565b6003819055505050505050565b6000620001c483670de0b6b3a764000084620001cc60201b60201c565b905092915050565b6000806000801985870985870292508281108382030391505060008114156200020a5760008411620001fd57600080fd5b8382049250505062000396565b8084116200021757600080fd5b60008486880990508281118203915080830392506000600186196200023d91906200055c565b861690508086049550808404935060018182600003040190508083620002649190620004fb565b84179350600060028760036200027b9190620004fb565b18905080876200028c9190620004fb565b60026200029a9190620005b9565b81620002a79190620004fb565b90508087620002b79190620004fb565b6002620002c59190620005b9565b81620002d29190620004fb565b90508087620002e29190620004fb565b6002620002f09190620005b9565b81620002fd9190620004fb565b905080876200030d9190620004fb565b60026200031b9190620005b9565b81620003289190620004fb565b90508087620003389190620004fb565b6002620003469190620005b9565b81620003539190620004fb565b90508087620003639190620004fb565b6002620003719190620005b9565b816200037e9190620004fb565b905080856200038e9190620004fb565b955050505050505b9392505050565b600080fd5b6000819050919050565b620003b781620003a2565b8114620003c357600080fd5b50565b600081519050620003d781620003ac565b92915050565b600080600080600060a08688031215620003fc57620003fb6200039d565b5b60006200040c88828901620003c6565b95505060206200041f88828901620003c6565b94505060406200043288828901620003c6565b93505060606200044588828901620003c6565b92505060806200045888828901620003c6565b9150509295509295909350565b7f4e487b7100000000000000000000000000000000000000000000000000000000600052601260045260246000fd5b7f4e487b7100000000000000000000000000000000000000000000000000000000600052601160045260246000fd5b6000620004d082620003a2565b9150620004dd83620003a2565b925082620004f057620004ef62000465565b5b828204905092915050565b60006200050882620003a2565b91506200051583620003a2565b9250817fffffffffffffffffffffffffffffffffffffffffffffffffffffffffffffffff048311821515161562000551576200055062000494565b5b828202905092915050565b60006200056982620003a2565b91506200057683620003a2565b9250827fffffffffffffffffffffffffffffffffffffffffffffffffffffffffffffffff03821115620005ae57620005ad62000494565b5b828201905092915050565b6000620005c682620003a2565b9150620005d383620003a2565b925082821015620005e957620005e862000494565b5b828203905092915050565b608051610dce620006176000396000818161029f01526104330152610dce6000f3fe608060405234801561001057600080fd5b50600436106100a95760003560e01c8063b816881611610071578063b816881614610140578063b9f9850a14610170578063d37db1d21461018e578063f14039de146101ac578063f2fde38b146101ca578063fd2da339146101e6576100a9565b806315f24053146100ae5780632037f3e7146100de578063715018a6146100fa5780638726bb89146101045780638da5cb5b14610122575b600080fd5b6100c860048036038101906100c3919061097d565b610204565b6040516100d591906109df565b60405180910390f35b6100f860048036038101906100f391906109fa565b61021a565b005b61010261030b565b005b61010c610393565b60405161011991906109df565b60405180910390f35b61012a610399565b6040516101379190610aa2565b60405180910390f35b61015a600480360381019061015591906109fa565b6103c2565b60405161016791906109df565b60405180910390f35b61017861042b565b60405161018591906109df565b60405180910390f35b610196610431565b6040516101a391906109df565b60405180910390f35b6101b4610455565b6040516101c191906109df565b60405180910390f35b6101e460048036038101906101df9190610ae9565b61045b565b005b6101ee610553565b6040516101fb91906109df565b60405180910390f35b6000610211848484610576565b90509392505050565b610222610623565b73ffffffffffffffffffffffffffffffffffffffff16610240610399565b73ffffffffffffffffffffffffffffffffffffffff1614610296576040517f08c379a000000000000000000000000000000000000000000000000000000000815260040161028d90610b73565b60405180910390fd5b6102c3848484847f000000000000000000000000000000000000000000000000000000000000000061062b565b6004546002546001547fd7ae5fad25391cf8c5c4c2570332742d2f60225cfaa4fb775ce878a2b8394be36003546040516102fd91906109df565b60405180910390a450505050565b610313610623565b73ffffffffffffffffffffffffffffffffffffffff16610331610399565b73ffffffffffffffffffffffffffffffffffffffff1614610387576040517f08c379a000000000000000000000000000000000000000000000000000000000815260040161037e90610b73565b60405180910390fd5b610391600061067a565b565b60025481565b60008060009054906101000a900473ffffffffffffffffffffffffffffffffffffffff16905090565b60008082670de0b6b3a76400006103d99190610bc2565b905060006103e8878787610576565b905060006103ff838361073e90919063ffffffff16565b905061041e816104108a8a8a61075b565b61073e90919063ffffffff16565b9350505050949350505050565b60035481565b7f000000000000000000000000000000000000000000000000000000000000000081565b60015481565b610463610623565b73ffffffffffffffffffffffffffffffffffffffff16610481610399565b73ffffffffffffffffffffffffffffffffffffffff16146104d7576040517f08c379a00000000000000000000000000000000000000000000000000000000081526004016104ce90610b73565b60405180910390fd5b600073ffffffffffffffffffffffffffffffffffffffff168173ffffffffffffffffffffffffffffffffffffffff161415610547576040517f08c379a000000000000000000000000000000000000000000000000000000000815260040161053e90610c68565b60405180910390fd5b6105508161067a565b50565b60045481565b600061056e83670de0b6b3a7640000846107a1565b905092915050565b60008061058485858561075b565b9050600060045490508181106105bf576001546105ac6002548461073e90919063ffffffff16565b6105b69190610c88565b9250505061061c565b60006001546105d96002548461073e90919063ffffffff16565b6105e39190610c88565b9050600082846105f39190610bc2565b90508161060b6003548361073e90919063ffffffff16565b6106159190610c88565b9450505050505b9392505050565b600033905090565b80856106379190610d0d565b60018190555061065b828261064c9190610d3e565b8561055990919063ffffffff16565b600281905550808361066d9190610d0d565b6003819055505050505050565b60008060009054906101000a900473ffffffffffffffffffffffffffffffffffffffff169050816000806101000a81548173ffffffffffffffffffffffffffffffffffffffff021916908373ffffffffffffffffffffffffffffffffffffffff1602179055508173ffffffffffffffffffffffffffffffffffffffff168173ffffffffffffffffffffffffffffffffffffffff167f8be0079c531659141344cd1fd0a4f28419497f9722a3daafe3b4186f6b6457e060405160405180910390a35050565b60006107538383670de0b6b3a76400006107a1565b905092915050565b60008083141561076e576000905061079a565b61079782848661077e9190610c88565b6107889190610bc2565b8461055990919063ffffffff16565b90505b9392505050565b6000806000801985870985870292508281108382030391505060008114156107dc57600084116107d057600080fd5b8382049250505061093b565b8084116107e857600080fd5b600084868809905082811182039150808303925060006001861961080c9190610c88565b8616905080860495508084049350600181826000030401905080836108319190610d3e565b84179350600060028760036108469190610d3e565b18905080876108559190610d3e565b60026108619190610bc2565b8161086c9190610d3e565b9050808761087a9190610d3e565b60026108869190610bc2565b816108919190610d3e565b9050808761089f9190610d3e565b60026108ab9190610bc2565b816108b69190610d3e565b905080876108c49190610d3e565b60026108d09190610bc2565b816108db9190610d3e565b905080876108e99190610d3e565b60026108f59190610bc2565b816109009190610d3e565b9050808761090e9190610d3e565b600261091a9190610bc2565b816109259190610d3e565b905080856109339190610d3e565b955050505050505b9392505050565b600080fd5b6000819050919050565b61095a81610947565b811461096557600080fd5b50565b60008135905061097781610951565b92915050565b60008060006060848603121561099657610995610942565b5b60006109a486828701610968565b93505060206109b586828701610968565b92505060406109c686828701610968565b9150509250925092565b6109d981610947565b82525050565b60006020820190506109f460008301846109d0565b92915050565b60008060008060808587031215610a1457610a13610942565b5b6000610a2287828801610968565b9450506020610a3387828801610968565b9350506040610a4487828801610968565b9250506060610a5587828801610968565b91505092959194509250565b600073ffffffffffffffffffffffffffffffffffffffff82169050919050565b6000610a8c82610a61565b9050919050565b610a9c81610a81565b82525050565b6000602082019050610ab76000830184610a93565b92915050565b610ac681610a81565b8114610ad157600080fd5b50565b600081359050610ae381610abd565b92915050565b600060208284031215610aff57610afe610942565b5b6000610b0d84828501610ad4565b91505092915050565b600082825260208201905092915050565b7f4f776e61626c653a2063616c6c6572206973206e6f7420746865206f776e6572600082015250565b6000610b5d602083610b16565b9150610b6882610b27565b602082019050919050565b60006020820190508181036000830152610b8c81610b50565b9050919050565b7f4e487b7100000000000000000000000000000000000000000000000000000000600052601160045260246000fd5b6000610bcd82610947565b9150610bd883610947565b925082821015610beb57610bea610b93565b5b828203905092915050565b7f4f776e61626c653a206e6577206f776e657220697320746865207a65726f206160008201527f6464726573730000000000000000000000000000000000000000000000000000602082015250565b6000610c52602683610b16565b9150610c5d82610bf6565b604082019050919050565b60006020820190508181036000830152610c8181610c45565b9050919050565b6000610c9382610947565b9150610c9e83610947565b9250827fffffffffffffffffffffffffffffffffffffffffffffffffffffffffffffffff03821115610cd357610cd2610b93565b5b828201905092915050565b7f4e487b7100000000000000000000000000000000000000000000000000000000600052601260045260246000fd5b6000610d1882610947565b9150610d2383610947565b925082610d3357610d32610cde565b5b828204905092915050565b6000610d4982610947565b9150610d5483610947565b9250817fffffffffffffffffffffffffffffffffffffffffffffffffffffffffffffffff0483118215151615610d8d57610d8c610b93565b5b82820290509291505056fea2646970667358221220525cc6e255ab4e2c93715c8c412b32ff6461544d8038548c76c3b98da79020c464736f6c634300080c0033",
          "opcodes": "PUSH1 0xA0 PUSH1 0x40 MSTORE CALLVALUE DUP1 ISZERO PUSH3 0x11 JUMPI PUSH1 0x0 DUP1 REVERT JUMPDEST POP PUSH1 0x40 MLOAD PUSH3 0x13E5 CODESIZE SUB DUP1 PUSH3 0x13E5 DUP4 CODECOPY DUP2 DUP2 ADD PUSH1 0x40 MSTORE DUP2 ADD SWAP1 PUSH3 0x37 SWAP2 SWAP1 PUSH3 0x3DD JUMP JUMPDEST PUSH3 0x57 PUSH3 0x4B PUSH3 0x7F PUSH1 0x20 SHL PUSH1 0x20 SHR JUMP JUMPDEST PUSH3 0x87 PUSH1 0x20 SHL PUSH1 0x20 SHR JUMP JUMPDEST PUSH3 0x6C DUP6 DUP6 DUP6 DUP6 DUP6 PUSH3 0x14B PUSH1 0x20 SHL PUSH1 0x20 SHR JUMP JUMPDEST DUP1 PUSH1 0x80 DUP2 DUP2 MSTORE POP POP POP POP POP POP POP PUSH3 0x5F4 JUMP JUMPDEST PUSH1 0x0 CALLER SWAP1 POP SWAP1 JUMP JUMPDEST PUSH1 0x0 DUP1 PUSH1 0x0 SWAP1 SLOAD SWAP1 PUSH2 0x100 EXP SWAP1 DIV PUSH20 0xFFFFFFFFFFFFFFFFFFFFFFFFFFFFFFFFFFFFFFFF AND SWAP1 POP DUP2 PUSH1 0x0 DUP1 PUSH2 0x100 EXP DUP2 SLOAD DUP2 PUSH20 0xFFFFFFFFFFFFFFFFFFFFFFFFFFFFFFFFFFFFFFFF MUL NOT AND SWAP1 DUP4 PUSH20 0xFFFFFFFFFFFFFFFFFFFFFFFFFFFFFFFFFFFFFFFF AND MUL OR SWAP1 SSTORE POP DUP2 PUSH20 0xFFFFFFFFFFFFFFFFFFFFFFFFFFFFFFFFFFFFFFFF AND DUP2 PUSH20 0xFFFFFFFFFFFFFFFFFFFFFFFFFFFFFFFFFFFFFFFF AND PUSH32 0x8BE0079C531659141344CD1FD0A4F28419497F9722A3DAAFE3B4186F6B6457E0 PUSH1 0x40 MLOAD PUSH1 0x40 MLOAD DUP1 SWAP2 SUB SWAP1 LOG3 POP POP JUMP JUMPDEST DUP1 DUP6 PUSH3 0x159 SWAP2 SWAP1 PUSH3 0x4C3 JUMP JUMPDEST PUSH1 0x1 DUP2 SWAP1 SSTORE POP PUSH3 0x186 DUP3 DUP3 PUSH3 0x171 SWAP2 SWAP1 PUSH3 0x4FB JUMP JUMPDEST DUP6 PUSH3 0x1A7 PUSH1 0x20 SHL PUSH3 0x559 OR SWAP1 SWAP2 SWAP1 PUSH1 0x20 SHR JUMP JUMPDEST PUSH1 0x2 DUP2 SWAP1 SSTORE POP DUP1 DUP4 PUSH3 0x19A SWAP2 SWAP1 PUSH3 0x4C3 JUMP JUMPDEST PUSH1 0x3 DUP2 SWAP1 SSTORE POP POP POP POP POP POP JUMP JUMPDEST PUSH1 0x0 PUSH3 0x1C4 DUP4 PUSH8 0xDE0B6B3A7640000 DUP5 PUSH3 0x1CC PUSH1 0x20 SHL PUSH1 0x20 SHR JUMP JUMPDEST SWAP1 POP SWAP3 SWAP2 POP POP JUMP JUMPDEST PUSH1 0x0 DUP1 PUSH1 0x0 DUP1 NOT DUP6 DUP8 MULMOD DUP6 DUP8 MUL SWAP3 POP DUP3 DUP2 LT DUP4 DUP3 SUB SUB SWAP2 POP POP PUSH1 0x0 DUP2 EQ ISZERO PUSH3 0x20A JUMPI PUSH1 0x0 DUP5 GT PUSH3 0x1FD JUMPI PUSH1 0x0 DUP1 REVERT JUMPDEST DUP4 DUP3 DIV SWAP3 POP POP POP PUSH3 0x396 JUMP JUMPDEST DUP1 DUP5 GT PUSH3 0x217 JUMPI PUSH1 0x0 DUP1 REVERT JUMPDEST PUSH1 0x0 DUP5 DUP7 DUP9 MULMOD SWAP1 POP DUP3 DUP2 GT DUP3 SUB SWAP2 POP DUP1 DUP4 SUB SWAP3 POP PUSH1 0x0 PUSH1 0x1 DUP7 NOT PUSH3 0x23D SWAP2 SWAP1 PUSH3 0x55C JUMP JUMPDEST DUP7 AND SWAP1 POP DUP1 DUP7 DIV SWAP6 POP DUP1 DUP5 DIV SWAP4 POP PUSH1 0x1 DUP2 DUP3 PUSH1 0x0 SUB DIV ADD SWAP1 POP DUP1 DUP4 PUSH3 0x264 SWAP2 SWAP1 PUSH3 0x4FB JUMP JUMPDEST DUP5 OR SWAP4 POP PUSH1 0x0 PUSH1 0x2 DUP8 PUSH1 0x3 PUSH3 0x27B SWAP2 SWAP1 PUSH3 0x4FB JUMP JUMPDEST XOR SWAP1 POP DUP1 DUP8 PUSH3 0x28C SWAP2 SWAP1 PUSH3 0x4FB JUMP JUMPDEST PUSH1 0x2 PUSH3 0x29A SWAP2 SWAP1 PUSH3 0x5B9 JUMP JUMPDEST DUP2 PUSH3 0x2A7 SWAP2 SWAP1 PUSH3 0x4FB JUMP JUMPDEST SWAP1 POP DUP1 DUP8 PUSH3 0x2B7 SWAP2 SWAP1 PUSH3 0x4FB JUMP JUMPDEST PUSH1 0x2 PUSH3 0x2C5 SWAP2 SWAP1 PUSH3 0x5B9 JUMP JUMPDEST DUP2 PUSH3 0x2D2 SWAP2 SWAP1 PUSH3 0x4FB JUMP JUMPDEST SWAP1 POP DUP1 DUP8 PUSH3 0x2E2 SWAP2 SWAP1 PUSH3 0x4FB JUMP JUMPDEST PUSH1 0x2 PUSH3 0x2F0 SWAP2 SWAP1 PUSH3 0x5B9 JUMP JUMPDEST DUP2 PUSH3 0x2FD SWAP2 SWAP1 PUSH3 0x4FB JUMP JUMPDEST SWAP1 POP DUP1 DUP8 PUSH3 0x30D SWAP2 SWAP1 PUSH3 0x4FB JUMP JUMPDEST PUSH1 0x2 PUSH3 0x31B SWAP2 SWAP1 PUSH3 0x5B9 JUMP JUMPDEST DUP2 PUSH3 0x328 SWAP2 SWAP1 PUSH3 0x4FB JUMP JUMPDEST SWAP1 POP DUP1 DUP8 PUSH3 0x338 SWAP2 SWAP1 PUSH3 0x4FB JUMP JUMPDEST PUSH1 0x2 PUSH3 0x346 SWAP2 SWAP1 PUSH3 0x5B9 JUMP JUMPDEST DUP2 PUSH3 0x353 SWAP2 SWAP1 PUSH3 0x4FB JUMP JUMPDEST SWAP1 POP DUP1 DUP8 PUSH3 0x363 SWAP2 SWAP1 PUSH3 0x4FB JUMP JUMPDEST PUSH1 0x2 PUSH3 0x371 SWAP2 SWAP1 PUSH3 0x5B9 JUMP JUMPDEST DUP2 PUSH3 0x37E SWAP2 SWAP1 PUSH3 0x4FB JUMP JUMPDEST SWAP1 POP DUP1 DUP6 PUSH3 0x38E SWAP2 SWAP1 PUSH3 0x4FB JUMP JUMPDEST SWAP6 POP POP POP POP POP POP JUMPDEST SWAP4 SWAP3 POP POP POP JUMP JUMPDEST PUSH1 0x0 DUP1 REVERT JUMPDEST PUSH1 0x0 DUP2 SWAP1 POP SWAP2 SWAP1 POP JUMP JUMPDEST PUSH3 0x3B7 DUP2 PUSH3 0x3A2 JUMP JUMPDEST DUP2 EQ PUSH3 0x3C3 JUMPI PUSH1 0x0 DUP1 REVERT JUMPDEST POP JUMP JUMPDEST PUSH1 0x0 DUP2 MLOAD SWAP1 POP PUSH3 0x3D7 DUP2 PUSH3 0x3AC JUMP JUMPDEST SWAP3 SWAP2 POP POP JUMP JUMPDEST PUSH1 0x0 DUP1 PUSH1 0x0 DUP1 PUSH1 0x0 PUSH1 0xA0 DUP7 DUP9 SUB SLT ISZERO PUSH3 0x3FC JUMPI PUSH3 0x3FB PUSH3 0x39D JUMP JUMPDEST JUMPDEST PUSH1 0x0 PUSH3 0x40C DUP9 DUP3 DUP10 ADD PUSH3 0x3C6 JUMP JUMPDEST SWAP6 POP POP PUSH1 0x20 PUSH3 0x41F DUP9 DUP3 DUP10 ADD PUSH3 0x3C6 JUMP JUMPDEST SWAP5 POP POP PUSH1 0x40 PUSH3 0x432 DUP9 DUP3 DUP10 ADD PUSH3 0x3C6 JUMP JUMPDEST SWAP4 POP POP PUSH1 0x60 PUSH3 0x445 DUP9 DUP3 DUP10 ADD PUSH3 0x3C6 JUMP JUMPDEST SWAP3 POP POP PUSH1 0x80 PUSH3 0x458 DUP9 DUP3 DUP10 ADD PUSH3 0x3C6 JUMP JUMPDEST SWAP2 POP POP SWAP3 SWAP6 POP SWAP3 SWAP6 SWAP1 SWAP4 POP JUMP JUMPDEST PUSH32 0x4E487B7100000000000000000000000000000000000000000000000000000000 PUSH1 0x0 MSTORE PUSH1 0x12 PUSH1 0x4 MSTORE PUSH1 0x24 PUSH1 0x0 REVERT JUMPDEST PUSH32 0x4E487B7100000000000000000000000000000000000000000000000000000000 PUSH1 0x0 MSTORE PUSH1 0x11 PUSH1 0x4 MSTORE PUSH1 0x24 PUSH1 0x0 REVERT JUMPDEST PUSH1 0x0 PUSH3 0x4D0 DUP3 PUSH3 0x3A2 JUMP JUMPDEST SWAP2 POP PUSH3 0x4DD DUP4 PUSH3 0x3A2 JUMP JUMPDEST SWAP3 POP DUP3 PUSH3 0x4F0 JUMPI PUSH3 0x4EF PUSH3 0x465 JUMP JUMPDEST JUMPDEST DUP3 DUP3 DIV SWAP1 POP SWAP3 SWAP2 POP POP JUMP JUMPDEST PUSH1 0x0 PUSH3 0x508 DUP3 PUSH3 0x3A2 JUMP JUMPDEST SWAP2 POP PUSH3 0x515 DUP4 PUSH3 0x3A2 JUMP JUMPDEST SWAP3 POP DUP2 PUSH32 0xFFFFFFFFFFFFFFFFFFFFFFFFFFFFFFFFFFFFFFFFFFFFFFFFFFFFFFFFFFFFFFFF DIV DUP4 GT DUP3 ISZERO ISZERO AND ISZERO PUSH3 0x551 JUMPI PUSH3 0x550 PUSH3 0x494 JUMP JUMPDEST JUMPDEST DUP3 DUP3 MUL SWAP1 POP SWAP3 SWAP2 POP POP JUMP JUMPDEST PUSH1 0x0 PUSH3 0x569 DUP3 PUSH3 0x3A2 JUMP JUMPDEST SWAP2 POP PUSH3 0x576 DUP4 PUSH3 0x3A2 JUMP JUMPDEST SWAP3 POP DUP3 PUSH32 0xFFFFFFFFFFFFFFFFFFFFFFFFFFFFFFFFFFFFFFFFFFFFFFFFFFFFFFFFFFFFFFFF SUB DUP3 GT ISZERO PUSH3 0x5AE JUMPI PUSH3 0x5AD PUSH3 0x494 JUMP JUMPDEST JUMPDEST DUP3 DUP3 ADD SWAP1 POP SWAP3 SWAP2 POP POP JUMP JUMPDEST PUSH1 0x0 PUSH3 0x5C6 DUP3 PUSH3 0x3A2 JUMP JUMPDEST SWAP2 POP PUSH3 0x5D3 DUP4 PUSH3 0x3A2 JUMP JUMPDEST SWAP3 POP DUP3 DUP3 LT ISZERO PUSH3 0x5E9 JUMPI PUSH3 0x5E8 PUSH3 0x494 JUMP JUMPDEST JUMPDEST DUP3 DUP3 SUB SWAP1 POP SWAP3 SWAP2 POP POP JUMP JUMPDEST PUSH1 0x80 MLOAD PUSH2 0xDCE PUSH3 0x617 PUSH1 0x0 CODECOPY PUSH1 0x0 DUP2 DUP2 PUSH2 0x29F ADD MSTORE PUSH2 0x433 ADD MSTORE PUSH2 0xDCE PUSH1 0x0 RETURN INVALID PUSH1 0x80 PUSH1 0x40 MSTORE CALLVALUE DUP1 ISZERO PUSH2 0x10 JUMPI PUSH1 0x0 DUP1 REVERT JUMPDEST POP PUSH1 0x4 CALLDATASIZE LT PUSH2 0xA9 JUMPI PUSH1 0x0 CALLDATALOAD PUSH1 0xE0 SHR DUP1 PUSH4 0xB8168816 GT PUSH2 0x71 JUMPI DUP1 PUSH4 0xB8168816 EQ PUSH2 0x140 JUMPI DUP1 PUSH4 0xB9F9850A EQ PUSH2 0x170 JUMPI DUP1 PUSH4 0xD37DB1D2 EQ PUSH2 0x18E JUMPI DUP1 PUSH4 0xF14039DE EQ PUSH2 0x1AC JUMPI DUP1 PUSH4 0xF2FDE38B EQ PUSH2 0x1CA JUMPI DUP1 PUSH4 0xFD2DA339 EQ PUSH2 0x1E6 JUMPI PUSH2 0xA9 JUMP JUMPDEST DUP1 PUSH4 0x15F24053 EQ PUSH2 0xAE JUMPI DUP1 PUSH4 0x2037F3E7 EQ PUSH2 0xDE JUMPI DUP1 PUSH4 0x715018A6 EQ PUSH2 0xFA JUMPI DUP1 PUSH4 0x8726BB89 EQ PUSH2 0x104 JUMPI DUP1 PUSH4 0x8DA5CB5B EQ PUSH2 0x122 JUMPI JUMPDEST PUSH1 0x0 DUP1 REVERT JUMPDEST PUSH2 0xC8 PUSH1 0x4 DUP1 CALLDATASIZE SUB DUP2 ADD SWAP1 PUSH2 0xC3 SWAP2 SWAP1 PUSH2 0x97D JUMP JUMPDEST PUSH2 0x204 JUMP JUMPDEST PUSH1 0x40 MLOAD PUSH2 0xD5 SWAP2 SWAP1 PUSH2 0x9DF JUMP JUMPDEST PUSH1 0x40 MLOAD DUP1 SWAP2 SUB SWAP1 RETURN JUMPDEST PUSH2 0xF8 PUSH1 0x4 DUP1 CALLDATASIZE SUB DUP2 ADD SWAP1 PUSH2 0xF3 SWAP2 SWAP1 PUSH2 0x9FA JUMP JUMPDEST PUSH2 0x21A JUMP JUMPDEST STOP JUMPDEST PUSH2 0x102 PUSH2 0x30B JUMP JUMPDEST STOP JUMPDEST PUSH2 0x10C PUSH2 0x393 JUMP JUMPDEST PUSH1 0x40 MLOAD PUSH2 0x119 SWAP2 SWAP1 PUSH2 0x9DF JUMP JUMPDEST PUSH1 0x40 MLOAD DUP1 SWAP2 SUB SWAP1 RETURN JUMPDEST PUSH2 0x12A PUSH2 0x399 JUMP JUMPDEST PUSH1 0x40 MLOAD PUSH2 0x137 SWAP2 SWAP1 PUSH2 0xAA2 JUMP JUMPDEST PUSH1 0x40 MLOAD DUP1 SWAP2 SUB SWAP1 RETURN JUMPDEST PUSH2 0x15A PUSH1 0x4 DUP1 CALLDATASIZE SUB DUP2 ADD SWAP1 PUSH2 0x155 SWAP2 SWAP1 PUSH2 0x9FA JUMP JUMPDEST PUSH2 0x3C2 JUMP JUMPDEST PUSH1 0x40 MLOAD PUSH2 0x167 SWAP2 SWAP1 PUSH2 0x9DF JUMP JUMPDEST PUSH1 0x40 MLOAD DUP1 SWAP2 SUB SWAP1 RETURN JUMPDEST PUSH2 0x178 PUSH2 0x42B JUMP JUMPDEST PUSH1 0x40 MLOAD PUSH2 0x185 SWAP2 SWAP1 PUSH2 0x9DF JUMP JUMPDEST PUSH1 0x40 MLOAD DUP1 SWAP2 SUB SWAP1 RETURN JUMPDEST PUSH2 0x196 PUSH2 0x431 JUMP JUMPDEST PUSH1 0x40 MLOAD PUSH2 0x1A3 SWAP2 SWAP1 PUSH2 0x9DF JUMP JUMPDEST PUSH1 0x40 MLOAD DUP1 SWAP2 SUB SWAP1 RETURN JUMPDEST PUSH2 0x1B4 PUSH2 0x455 JUMP JUMPDEST PUSH1 0x40 MLOAD PUSH2 0x1C1 SWAP2 SWAP1 PUSH2 0x9DF JUMP JUMPDEST PUSH1 0x40 MLOAD DUP1 SWAP2 SUB SWAP1 RETURN JUMPDEST PUSH2 0x1E4 PUSH1 0x4 DUP1 CALLDATASIZE SUB DUP2 ADD SWAP1 PUSH2 0x1DF SWAP2 SWAP1 PUSH2 0xAE9 JUMP JUMPDEST PUSH2 0x45B JUMP JUMPDEST STOP JUMPDEST PUSH2 0x1EE PUSH2 0x553 JUMP JUMPDEST PUSH1 0x40 MLOAD PUSH2 0x1FB SWAP2 SWAP1 PUSH2 0x9DF JUMP JUMPDEST PUSH1 0x40 MLOAD DUP1 SWAP2 SUB SWAP1 RETURN JUMPDEST PUSH1 0x0 PUSH2 0x211 DUP5 DUP5 DUP5 PUSH2 0x576 JUMP JUMPDEST SWAP1 POP SWAP4 SWAP3 POP POP POP JUMP JUMPDEST PUSH2 0x222 PUSH2 0x623 JUMP JUMPDEST PUSH20 0xFFFFFFFFFFFFFFFFFFFFFFFFFFFFFFFFFFFFFFFF AND PUSH2 0x240 PUSH2 0x399 JUMP JUMPDEST PUSH20 0xFFFFFFFFFFFFFFFFFFFFFFFFFFFFFFFFFFFFFFFF AND EQ PUSH2 0x296 JUMPI PUSH1 0x40 MLOAD PUSH32 0x8C379A000000000000000000000000000000000000000000000000000000000 DUP2 MSTORE PUSH1 0x4 ADD PUSH2 0x28D SWAP1 PUSH2 0xB73 JUMP JUMPDEST PUSH1 0x40 MLOAD DUP1 SWAP2 SUB SWAP1 REVERT JUMPDEST PUSH2 0x2C3 DUP5 DUP5 DUP5 DUP5 PUSH32 0x0 PUSH2 0x62B JUMP JUMPDEST PUSH1 0x4 SLOAD PUSH1 0x2 SLOAD PUSH1 0x1 SLOAD PUSH32 0xD7AE5FAD25391CF8C5C4C2570332742D2F60225CFAA4FB775CE878A2B8394BE3 PUSH1 0x3 SLOAD PUSH1 0x40 MLOAD PUSH2 0x2FD SWAP2 SWAP1 PUSH2 0x9DF JUMP JUMPDEST PUSH1 0x40 MLOAD DUP1 SWAP2 SUB SWAP1 LOG4 POP POP POP POP JUMP JUMPDEST PUSH2 0x313 PUSH2 0x623 JUMP JUMPDEST PUSH20 0xFFFFFFFFFFFFFFFFFFFFFFFFFFFFFFFFFFFFFFFF AND PUSH2 0x331 PUSH2 0x399 JUMP JUMPDEST PUSH20 0xFFFFFFFFFFFFFFFFFFFFFFFFFFFFFFFFFFFFFFFF AND EQ PUSH2 0x387 JUMPI PUSH1 0x40 MLOAD PUSH32 0x8C379A000000000000000000000000000000000000000000000000000000000 DUP2 MSTORE PUSH1 0x4 ADD PUSH2 0x37E SWAP1 PUSH2 0xB73 JUMP JUMPDEST PUSH1 0x40 MLOAD DUP1 SWAP2 SUB SWAP1 REVERT JUMPDEST PUSH2 0x391 PUSH1 0x0 PUSH2 0x67A JUMP JUMPDEST JUMP JUMPDEST PUSH1 0x2 SLOAD DUP2 JUMP JUMPDEST PUSH1 0x0 DUP1 PUSH1 0x0 SWAP1 SLOAD SWAP1 PUSH2 0x100 EXP SWAP1 DIV PUSH20 0xFFFFFFFFFFFFFFFFFFFFFFFFFFFFFFFFFFFFFFFF AND SWAP1 POP SWAP1 JUMP JUMPDEST PUSH1 0x0 DUP1 DUP3 PUSH8 0xDE0B6B3A7640000 PUSH2 0x3D9 SWAP2 SWAP1 PUSH2 0xBC2 JUMP JUMPDEST SWAP1 POP PUSH1 0x0 PUSH2 0x3E8 DUP8 DUP8 DUP8 PUSH2 0x576 JUMP JUMPDEST SWAP1 POP PUSH1 0x0 PUSH2 0x3FF DUP4 DUP4 PUSH2 0x73E SWAP1 SWAP2 SWAP1 PUSH4 0xFFFFFFFF AND JUMP JUMPDEST SWAP1 POP PUSH2 0x41E DUP2 PUSH2 0x410 DUP11 DUP11 DUP11 PUSH2 0x75B JUMP JUMPDEST PUSH2 0x73E SWAP1 SWAP2 SWAP1 PUSH4 0xFFFFFFFF AND JUMP JUMPDEST SWAP4 POP POP POP POP SWAP5 SWAP4 POP POP POP POP JUMP JUMPDEST PUSH1 0x3 SLOAD DUP2 JUMP JUMPDEST PUSH32 0x0 DUP2 JUMP JUMPDEST PUSH1 0x1 SLOAD DUP2 JUMP JUMPDEST PUSH2 0x463 PUSH2 0x623 JUMP JUMPDEST PUSH20 0xFFFFFFFFFFFFFFFFFFFFFFFFFFFFFFFFFFFFFFFF AND PUSH2 0x481 PUSH2 0x399 JUMP JUMPDEST PUSH20 0xFFFFFFFFFFFFFFFFFFFFFFFFFFFFFFFFFFFFFFFF AND EQ PUSH2 0x4D7 JUMPI PUSH1 0x40 MLOAD PUSH32 0x8C379A000000000000000000000000000000000000000000000000000000000 DUP2 MSTORE PUSH1 0x4 ADD PUSH2 0x4CE SWAP1 PUSH2 0xB73 JUMP JUMPDEST PUSH1 0x40 MLOAD DUP1 SWAP2 SUB SWAP1 REVERT JUMPDEST PUSH1 0x0 PUSH20 0xFFFFFFFFFFFFFFFFFFFFFFFFFFFFFFFFFFFFFFFF AND DUP2 PUSH20 0xFFFFFFFFFFFFFFFFFFFFFFFFFFFFFFFFFFFFFFFF AND EQ ISZERO PUSH2 0x547 JUMPI PUSH1 0x40 MLOAD PUSH32 0x8C379A000000000000000000000000000000000000000000000000000000000 DUP2 MSTORE PUSH1 0x4 ADD PUSH2 0x53E SWAP1 PUSH2 0xC68 JUMP JUMPDEST PUSH1 0x40 MLOAD DUP1 SWAP2 SUB SWAP1 REVERT JUMPDEST PUSH2 0x550 DUP2 PUSH2 0x67A JUMP JUMPDEST POP JUMP JUMPDEST PUSH1 0x4 SLOAD DUP2 JUMP JUMPDEST PUSH1 0x0 PUSH2 0x56E DUP4 PUSH8 0xDE0B6B3A7640000 DUP5 PUSH2 0x7A1 JUMP JUMPDEST SWAP1 POP SWAP3 SWAP2 POP POP JUMP JUMPDEST PUSH1 0x0 DUP1 PUSH2 0x584 DUP6 DUP6 DUP6 PUSH2 0x75B JUMP JUMPDEST SWAP1 POP PUSH1 0x0 PUSH1 0x4 SLOAD SWAP1 POP DUP2 DUP2 LT PUSH2 0x5BF JUMPI PUSH1 0x1 SLOAD PUSH2 0x5AC PUSH1 0x2 SLOAD DUP5 PUSH2 0x73E SWAP1 SWAP2 SWAP1 PUSH4 0xFFFFFFFF AND JUMP JUMPDEST PUSH2 0x5B6 SWAP2 SWAP1 PUSH2 0xC88 JUMP JUMPDEST SWAP3 POP POP POP PUSH2 0x61C JUMP JUMPDEST PUSH1 0x0 PUSH1 0x1 SLOAD PUSH2 0x5D9 PUSH1 0x2 SLOAD DUP5 PUSH2 0x73E SWAP1 SWAP2 SWAP1 PUSH4 0xFFFFFFFF AND JUMP JUMPDEST PUSH2 0x5E3 SWAP2 SWAP1 PUSH2 0xC88 JUMP JUMPDEST SWAP1 POP PUSH1 0x0 DUP3 DUP5 PUSH2 0x5F3 SWAP2 SWAP1 PUSH2 0xBC2 JUMP JUMPDEST SWAP1 POP DUP2 PUSH2 0x60B PUSH1 0x3 SLOAD DUP4 PUSH2 0x73E SWAP1 SWAP2 SWAP1 PUSH4 0xFFFFFFFF AND JUMP JUMPDEST PUSH2 0x615 SWAP2 SWAP1 PUSH2 0xC88 JUMP JUMPDEST SWAP5 POP POP POP POP POP JUMPDEST SWAP4 SWAP3 POP POP POP JUMP JUMPDEST PUSH1 0x0 CALLER SWAP1 POP SWAP1 JUMP JUMPDEST DUP1 DUP6 PUSH2 0x637 SWAP2 SWAP1 PUSH2 0xD0D JUMP JUMPDEST PUSH1 0x1 DUP2 SWAP1 SSTORE POP PUSH2 0x65B DUP3 DUP3 PUSH2 0x64C SWAP2 SWAP1 PUSH2 0xD3E JUMP JUMPDEST DUP6 PUSH2 0x559 SWAP1 SWAP2 SWAP1 PUSH4 0xFFFFFFFF AND JUMP JUMPDEST PUSH1 0x2 DUP2 SWAP1 SSTORE POP DUP1 DUP4 PUSH2 0x66D SWAP2 SWAP1 PUSH2 0xD0D JUMP JUMPDEST PUSH1 0x3 DUP2 SWAP1 SSTORE POP POP POP POP POP POP JUMP JUMPDEST PUSH1 0x0 DUP1 PUSH1 0x0 SWAP1 SLOAD SWAP1 PUSH2 0x100 EXP SWAP1 DIV PUSH20 0xFFFFFFFFFFFFFFFFFFFFFFFFFFFFFFFFFFFFFFFF AND SWAP1 POP DUP2 PUSH1 0x0 DUP1 PUSH2 0x100 EXP DUP2 SLOAD DUP2 PUSH20 0xFFFFFFFFFFFFFFFFFFFFFFFFFFFFFFFFFFFFFFFF MUL NOT AND SWAP1 DUP4 PUSH20 0xFFFFFFFFFFFFFFFFFFFFFFFFFFFFFFFFFFFFFFFF AND MUL OR SWAP1 SSTORE POP DUP2 PUSH20 0xFFFFFFFFFFFFFFFFFFFFFFFFFFFFFFFFFFFFFFFF AND DUP2 PUSH20 0xFFFFFFFFFFFFFFFFFFFFFFFFFFFFFFFFFFFFFFFF AND PUSH32 0x8BE0079C531659141344CD1FD0A4F28419497F9722A3DAAFE3B4186F6B6457E0 PUSH1 0x40 MLOAD PUSH1 0x40 MLOAD DUP1 SWAP2 SUB SWAP1 LOG3 POP POP JUMP JUMPDEST PUSH1 0x0 PUSH2 0x753 DUP4 DUP4 PUSH8 0xDE0B6B3A7640000 PUSH2 0x7A1 JUMP JUMPDEST SWAP1 POP SWAP3 SWAP2 POP POP JUMP JUMPDEST PUSH1 0x0 DUP1 DUP4 EQ ISZERO PUSH2 0x76E JUMPI PUSH1 0x0 SWAP1 POP PUSH2 0x79A JUMP JUMPDEST PUSH2 0x797 DUP3 DUP5 DUP7 PUSH2 0x77E SWAP2 SWAP1 PUSH2 0xC88 JUMP JUMPDEST PUSH2 0x788 SWAP2 SWAP1 PUSH2 0xBC2 JUMP JUMPDEST DUP5 PUSH2 0x559 SWAP1 SWAP2 SWAP1 PUSH4 0xFFFFFFFF AND JUMP JUMPDEST SWAP1 POP JUMPDEST SWAP4 SWAP3 POP POP POP JUMP JUMPDEST PUSH1 0x0 DUP1 PUSH1 0x0 DUP1 NOT DUP6 DUP8 MULMOD DUP6 DUP8 MUL SWAP3 POP DUP3 DUP2 LT DUP4 DUP3 SUB SUB SWAP2 POP POP PUSH1 0x0 DUP2 EQ ISZERO PUSH2 0x7DC JUMPI PUSH1 0x0 DUP5 GT PUSH2 0x7D0 JUMPI PUSH1 0x0 DUP1 REVERT JUMPDEST DUP4 DUP3 DIV SWAP3 POP POP POP PUSH2 0x93B JUMP JUMPDEST DUP1 DUP5 GT PUSH2 0x7E8 JUMPI PUSH1 0x0 DUP1 REVERT JUMPDEST PUSH1 0x0 DUP5 DUP7 DUP9 MULMOD SWAP1 POP DUP3 DUP2 GT DUP3 SUB SWAP2 POP DUP1 DUP4 SUB SWAP3 POP PUSH1 0x0 PUSH1 0x1 DUP7 NOT PUSH2 0x80C SWAP2 SWAP1 PUSH2 0xC88 JUMP JUMPDEST DUP7 AND SWAP1 POP DUP1 DUP7 DIV SWAP6 POP DUP1 DUP5 DIV SWAP4 POP PUSH1 0x1 DUP2 DUP3 PUSH1 0x0 SUB DIV ADD SWAP1 POP DUP1 DUP4 PUSH2 0x831 SWAP2 SWAP1 PUSH2 0xD3E JUMP JUMPDEST DUP5 OR SWAP4 POP PUSH1 0x0 PUSH1 0x2 DUP8 PUSH1 0x3 PUSH2 0x846 SWAP2 SWAP1 PUSH2 0xD3E JUMP JUMPDEST XOR SWAP1 POP DUP1 DUP8 PUSH2 0x855 SWAP2 SWAP1 PUSH2 0xD3E JUMP JUMPDEST PUSH1 0x2 PUSH2 0x861 SWAP2 SWAP1 PUSH2 0xBC2 JUMP JUMPDEST DUP2 PUSH2 0x86C SWAP2 SWAP1 PUSH2 0xD3E JUMP JUMPDEST SWAP1 POP DUP1 DUP8 PUSH2 0x87A SWAP2 SWAP1 PUSH2 0xD3E JUMP JUMPDEST PUSH1 0x2 PUSH2 0x886 SWAP2 SWAP1 PUSH2 0xBC2 JUMP JUMPDEST DUP2 PUSH2 0x891 SWAP2 SWAP1 PUSH2 0xD3E JUMP JUMPDEST SWAP1 POP DUP1 DUP8 PUSH2 0x89F SWAP2 SWAP1 PUSH2 0xD3E JUMP JUMPDEST PUSH1 0x2 PUSH2 0x8AB SWAP2 SWAP1 PUSH2 0xBC2 JUMP JUMPDEST DUP2 PUSH2 0x8B6 SWAP2 SWAP1 PUSH2 0xD3E JUMP JUMPDEST SWAP1 POP DUP1 DUP8 PUSH2 0x8C4 SWAP2 SWAP1 PUSH2 0xD3E JUMP JUMPDEST PUSH1 0x2 PUSH2 0x8D0 SWAP2 SWAP1 PUSH2 0xBC2 JUMP JUMPDEST DUP2 PUSH2 0x8DB SWAP2 SWAP1 PUSH2 0xD3E JUMP JUMPDEST SWAP1 POP DUP1 DUP8 PUSH2 0x8E9 SWAP2 SWAP1 PUSH2 0xD3E JUMP JUMPDEST PUSH1 0x2 PUSH2 0x8F5 SWAP2 SWAP1 PUSH2 0xBC2 JUMP JUMPDEST DUP2 PUSH2 0x900 SWAP2 SWAP1 PUSH2 0xD3E JUMP JUMPDEST SWAP1 POP DUP1 DUP8 PUSH2 0x90E SWAP2 SWAP1 PUSH2 0xD3E JUMP JUMPDEST PUSH1 0x2 PUSH2 0x91A SWAP2 SWAP1 PUSH2 0xBC2 JUMP JUMPDEST DUP2 PUSH2 0x925 SWAP2 SWAP1 PUSH2 0xD3E JUMP JUMPDEST SWAP1 POP DUP1 DUP6 PUSH2 0x933 SWAP2 SWAP1 PUSH2 0xD3E JUMP JUMPDEST SWAP6 POP POP POP POP POP POP JUMPDEST SWAP4 SWAP3 POP POP POP JUMP JUMPDEST PUSH1 0x0 DUP1 REVERT JUMPDEST PUSH1 0x0 DUP2 SWAP1 POP SWAP2 SWAP1 POP JUMP JUMPDEST PUSH2 0x95A DUP2 PUSH2 0x947 JUMP JUMPDEST DUP2 EQ PUSH2 0x965 JUMPI PUSH1 0x0 DUP1 REVERT JUMPDEST POP JUMP JUMPDEST PUSH1 0x0 DUP2 CALLDATALOAD SWAP1 POP PUSH2 0x977 DUP2 PUSH2 0x951 JUMP JUMPDEST SWAP3 SWAP2 POP POP JUMP JUMPDEST PUSH1 0x0 DUP1 PUSH1 0x0 PUSH1 0x60 DUP5 DUP7 SUB SLT ISZERO PUSH2 0x996 JUMPI PUSH2 0x995 PUSH2 0x942 JUMP JUMPDEST JUMPDEST PUSH1 0x0 PUSH2 0x9A4 DUP7 DUP3 DUP8 ADD PUSH2 0x968 JUMP JUMPDEST SWAP4 POP POP PUSH1 0x20 PUSH2 0x9B5 DUP7 DUP3 DUP8 ADD PUSH2 0x968 JUMP JUMPDEST SWAP3 POP POP PUSH1 0x40 PUSH2 0x9C6 DUP7 DUP3 DUP8 ADD PUSH2 0x968 JUMP JUMPDEST SWAP2 POP POP SWAP3 POP SWAP3 POP SWAP3 JUMP JUMPDEST PUSH2 0x9D9 DUP2 PUSH2 0x947 JUMP JUMPDEST DUP3 MSTORE POP POP JUMP JUMPDEST PUSH1 0x0 PUSH1 0x20 DUP3 ADD SWAP1 POP PUSH2 0x9F4 PUSH1 0x0 DUP4 ADD DUP5 PUSH2 0x9D0 JUMP JUMPDEST SWAP3 SWAP2 POP POP JUMP JUMPDEST PUSH1 0x0 DUP1 PUSH1 0x0 DUP1 PUSH1 0x80 DUP6 DUP8 SUB SLT ISZERO PUSH2 0xA14 JUMPI PUSH2 0xA13 PUSH2 0x942 JUMP JUMPDEST JUMPDEST PUSH1 0x0 PUSH2 0xA22 DUP8 DUP3 DUP9 ADD PUSH2 0x968 JUMP JUMPDEST SWAP5 POP POP PUSH1 0x20 PUSH2 0xA33 DUP8 DUP3 DUP9 ADD PUSH2 0x968 JUMP JUMPDEST SWAP4 POP POP PUSH1 0x40 PUSH2 0xA44 DUP8 DUP3 DUP9 ADD PUSH2 0x968 JUMP JUMPDEST SWAP3 POP POP PUSH1 0x60 PUSH2 0xA55 DUP8 DUP3 DUP9 ADD PUSH2 0x968 JUMP JUMPDEST SWAP2 POP POP SWAP3 SWAP6 SWAP2 SWAP5 POP SWAP3 POP JUMP JUMPDEST PUSH1 0x0 PUSH20 0xFFFFFFFFFFFFFFFFFFFFFFFFFFFFFFFFFFFFFFFF DUP3 AND SWAP1 POP SWAP2 SWAP1 POP JUMP JUMPDEST PUSH1 0x0 PUSH2 0xA8C DUP3 PUSH2 0xA61 JUMP JUMPDEST SWAP1 POP SWAP2 SWAP1 POP JUMP JUMPDEST PUSH2 0xA9C DUP2 PUSH2 0xA81 JUMP JUMPDEST DUP3 MSTORE POP POP JUMP JUMPDEST PUSH1 0x0 PUSH1 0x20 DUP3 ADD SWAP1 POP PUSH2 0xAB7 PUSH1 0x0 DUP4 ADD DUP5 PUSH2 0xA93 JUMP JUMPDEST SWAP3 SWAP2 POP POP JUMP JUMPDEST PUSH2 0xAC6 DUP2 PUSH2 0xA81 JUMP JUMPDEST DUP2 EQ PUSH2 0xAD1 JUMPI PUSH1 0x0 DUP1 REVERT JUMPDEST POP JUMP JUMPDEST PUSH1 0x0 DUP2 CALLDATALOAD SWAP1 POP PUSH2 0xAE3 DUP2 PUSH2 0xABD JUMP JUMPDEST SWAP3 SWAP2 POP POP JUMP JUMPDEST PUSH1 0x0 PUSH1 0x20 DUP3 DUP5 SUB SLT ISZERO PUSH2 0xAFF JUMPI PUSH2 0xAFE PUSH2 0x942 JUMP JUMPDEST JUMPDEST PUSH1 0x0 PUSH2 0xB0D DUP5 DUP3 DUP6 ADD PUSH2 0xAD4 JUMP JUMPDEST SWAP2 POP POP SWAP3 SWAP2 POP POP JUMP JUMPDEST PUSH1 0x0 DUP3 DUP3 MSTORE PUSH1 0x20 DUP3 ADD SWAP1 POP SWAP3 SWAP2 POP POP JUMP JUMPDEST PUSH32 0x4F776E61626C653A2063616C6C6572206973206E6F7420746865206F776E6572 PUSH1 0x0 DUP3 ADD MSTORE POP JUMP JUMPDEST PUSH1 0x0 PUSH2 0xB5D PUSH1 0x20 DUP4 PUSH2 0xB16 JUMP JUMPDEST SWAP2 POP PUSH2 0xB68 DUP3 PUSH2 0xB27 JUMP JUMPDEST PUSH1 0x20 DUP3 ADD SWAP1 POP SWAP2 SWAP1 POP JUMP JUMPDEST PUSH1 0x0 PUSH1 0x20 DUP3 ADD SWAP1 POP DUP2 DUP2 SUB PUSH1 0x0 DUP4 ADD MSTORE PUSH2 0xB8C DUP2 PUSH2 0xB50 JUMP JUMPDEST SWAP1 POP SWAP2 SWAP1 POP JUMP JUMPDEST PUSH32 0x4E487B7100000000000000000000000000000000000000000000000000000000 PUSH1 0x0 MSTORE PUSH1 0x11 PUSH1 0x4 MSTORE PUSH1 0x24 PUSH1 0x0 REVERT JUMPDEST PUSH1 0x0 PUSH2 0xBCD DUP3 PUSH2 0x947 JUMP JUMPDEST SWAP2 POP PUSH2 0xBD8 DUP4 PUSH2 0x947 JUMP JUMPDEST SWAP3 POP DUP3 DUP3 LT ISZERO PUSH2 0xBEB JUMPI PUSH2 0xBEA PUSH2 0xB93 JUMP JUMPDEST JUMPDEST DUP3 DUP3 SUB SWAP1 POP SWAP3 SWAP2 POP POP JUMP JUMPDEST PUSH32 0x4F776E61626C653A206E6577206F776E657220697320746865207A65726F2061 PUSH1 0x0 DUP3 ADD MSTORE PUSH32 0x6464726573730000000000000000000000000000000000000000000000000000 PUSH1 0x20 DUP3 ADD MSTORE POP JUMP JUMPDEST PUSH1 0x0 PUSH2 0xC52 PUSH1 0x26 DUP4 PUSH2 0xB16 JUMP JUMPDEST SWAP2 POP PUSH2 0xC5D DUP3 PUSH2 0xBF6 JUMP JUMPDEST PUSH1 0x40 DUP3 ADD SWAP1 POP SWAP2 SWAP1 POP JUMP JUMPDEST PUSH1 0x0 PUSH1 0x20 DUP3 ADD SWAP1 POP DUP2 DUP2 SUB PUSH1 0x0 DUP4 ADD MSTORE PUSH2 0xC81 DUP2 PUSH2 0xC45 JUMP JUMPDEST SWAP1 POP SWAP2 SWAP1 POP JUMP JUMPDEST PUSH1 0x0 PUSH2 0xC93 DUP3 PUSH2 0x947 JUMP JUMPDEST SWAP2 POP PUSH2 0xC9E DUP4 PUSH2 0x947 JUMP JUMPDEST SWAP3 POP DUP3 PUSH32 0xFFFFFFFFFFFFFFFFFFFFFFFFFFFFFFFFFFFFFFFFFFFFFFFFFFFFFFFFFFFFFFFF SUB DUP3 GT ISZERO PUSH2 0xCD3 JUMPI PUSH2 0xCD2 PUSH2 0xB93 JUMP JUMPDEST JUMPDEST DUP3 DUP3 ADD SWAP1 POP SWAP3 SWAP2 POP POP JUMP JUMPDEST PUSH32 0x4E487B7100000000000000000000000000000000000000000000000000000000 PUSH1 0x0 MSTORE PUSH1 0x12 PUSH1 0x4 MSTORE PUSH1 0x24 PUSH1 0x0 REVERT JUMPDEST PUSH1 0x0 PUSH2 0xD18 DUP3 PUSH2 0x947 JUMP JUMPDEST SWAP2 POP PUSH2 0xD23 DUP4 PUSH2 0x947 JUMP JUMPDEST SWAP3 POP DUP3 PUSH2 0xD33 JUMPI PUSH2 0xD32 PUSH2 0xCDE JUMP JUMPDEST JUMPDEST DUP3 DUP3 DIV SWAP1 POP SWAP3 SWAP2 POP POP JUMP JUMPDEST PUSH1 0x0 PUSH2 0xD49 DUP3 PUSH2 0x947 JUMP JUMPDEST SWAP2 POP PUSH2 0xD54 DUP4 PUSH2 0x947 JUMP JUMPDEST SWAP3 POP DUP2 PUSH32 0xFFFFFFFFFFFFFFFFFFFFFFFFFFFFFFFFFFFFFFFFFFFFFFFFFFFFFFFFFFFFFFFF DIV DUP4 GT DUP3 ISZERO ISZERO AND ISZERO PUSH2 0xD8D JUMPI PUSH2 0xD8C PUSH2 0xB93 JUMP JUMPDEST JUMPDEST DUP3 DUP3 MUL SWAP1 POP SWAP3 SWAP2 POP POP JUMP INVALID LOG2 PUSH5 0x6970667358 0x22 SLT KECCAK256 MSTORE 0x5C 0xC6 0xE2 SSTORE 0xAB 0x4E 0x2C SWAP4 PUSH18 0x5C8C412B32FF6461544D8038548C76C3B98D 0xA7 SWAP1 KECCAK256 0xC4 PUSH5 0x736F6C6343 STOP ADDMOD 0xC STOP CALLER "
        },
        "methodIdentifiers": {
          "BLOCKS_PER_YEAR()": "d37db1d2",
          "baseRatePerBlock()": "f14039de",
          "getBorrowRate(uint256,uint256,uint256)": "15f24053",
          "getSupplyRate(uint256,uint256,uint256,uint256)": "b8168816",
          "jumpMultiplierPerBlock()": "b9f9850a",
          "kink()": "fd2da339",
          "multiplierPerBlock()": "8726bb89",
          "owner()": "8da5cb5b",
          "renounceOwnership()": "715018a6",
          "transferOwnership(address)": "f2fde38b",
          "updateJumpRateModel(uint256,uint256,uint256,uint256)": "2037f3e7"
        }
      },
      "storageLayout": {
        "storage": [
          {
            "astId": 7,
            "contract": "contracts/JumpInterestRateModel.sol:JumpInterestRateModel",
            "label": "_owner",
            "offset": 0,
            "slot": "0",
            "type": "t_address"
          },
          {
            "astId": 312,
            "contract": "contracts/JumpInterestRateModel.sol:JumpInterestRateModel",
            "label": "baseRatePerBlock",
            "offset": 0,
            "slot": "1",
            "type": "t_uint256"
          },
          {
            "astId": 315,
            "contract": "contracts/JumpInterestRateModel.sol:JumpInterestRateModel",
            "label": "multiplierPerBlock",
            "offset": 0,
            "slot": "2",
            "type": "t_uint256"
          },
          {
            "astId": 318,
            "contract": "contracts/JumpInterestRateModel.sol:JumpInterestRateModel",
            "label": "jumpMultiplierPerBlock",
            "offset": 0,
            "slot": "3",
            "type": "t_uint256"
          },
          {
            "astId": 321,
            "contract": "contracts/JumpInterestRateModel.sol:JumpInterestRateModel",
            "label": "kink",
            "offset": 0,
            "slot": "4",
            "type": "t_uint256"
          }
        ],
        "types": {
          "t_address": {
            "encoding": "inplace",
            "label": "address",
            "numberOfBytes": "20"
          },
          "t_uint256": {
            "encoding": "inplace",
            "label": "uint256",
            "numberOfBytes": "32"
          }
        }
      }
    }
  }
}