{
  "contracts/JumpInterestRateModel.sol": {
    "JumpInterestRateModel": {
      "abi": [
        {
          "inputs": [
            {
              "internalType": "uint256",
              "name": "baseRatePerYear",
              "type": "uint256"
            },
            {
              "internalType": "uint256",
              "name": "multiplierPerYear",
              "type": "uint256"
            },
            {
              "internalType": "uint256",
              "name": "jumpMultiplierPerYear",
              "type": "uint256"
            },
            {
              "internalType": "uint256",
              "name": "_kink",
              "type": "uint256"
            },
            {
              "internalType": "uint256",
              "name": "blocksPerYear",
              "type": "uint256"
            }
          ],
          "stateMutability": "nonpayable",
          "type": "constructor"
        },
        {
          "anonymous": false,
          "inputs": [
            {
              "indexed": true,
              "internalType": "uint256",
              "name": "baseRatePerBlock",
              "type": "uint256"
            },
            {
              "indexed": true,
              "internalType": "uint256",
              "name": "multiplierPerBlock",
              "type": "uint256"
            },
            {
              "indexed": false,
              "internalType": "uint256",
              "name": "jumpMultiplierPerBlock",
              "type": "uint256"
            },
            {
              "indexed": true,
              "internalType": "uint256",
              "name": "_kink",
              "type": "uint256"
            }
          ],
          "name": "NewJumpRateModelVars",
          "type": "event"
        },
        {
          "anonymous": false,
          "inputs": [
            {
              "indexed": true,
              "internalType": "address",
              "name": "previousOwner",
              "type": "address"
            },
            {
              "indexed": true,
              "internalType": "address",
              "name": "newOwner",
              "type": "address"
            }
          ],
          "name": "OwnershipTransferred",
          "type": "event"
        },
        {
          "inputs": [],
          "name": "BLOCKS_PER_YEAR",
          "outputs": [
            {
              "internalType": "uint256",
              "name": "",
              "type": "uint256"
            }
          ],
          "stateMutability": "view",
          "type": "function"
        },
        {
          "inputs": [],
          "name": "baseRatePerBlock",
          "outputs": [
            {
              "internalType": "uint256",
              "name": "",
              "type": "uint256"
            }
          ],
          "stateMutability": "view",
          "type": "function"
        },
        {
          "inputs": [
            {
              "internalType": "uint256",
              "name": "cash",
              "type": "uint256"
            },
            {
              "internalType": "uint256",
              "name": "totalBorrowAmount",
              "type": "uint256"
            },
            {
              "internalType": "uint256",
              "name": "reserves",
              "type": "uint256"
            }
          ],
          "name": "getBorrowRatePerBlock",
          "outputs": [
            {
              "internalType": "uint256",
              "name": "",
              "type": "uint256"
            }
          ],
          "stateMutability": "view",
          "type": "function"
        },
        {
          "inputs": [
            {
              "internalType": "uint256",
              "name": "cash",
              "type": "uint256"
            },
            {
              "internalType": "uint256",
              "name": "totalBorrowAmount",
              "type": "uint256"
            },
            {
              "internalType": "uint256",
              "name": "reserves",
              "type": "uint256"
            },
            {
              "internalType": "uint256",
              "name": "reserveFactor",
              "type": "uint256"
            }
          ],
          "name": "getSupplyRatePerBlock",
          "outputs": [
            {
              "internalType": "uint256",
              "name": "",
              "type": "uint256"
            }
          ],
          "stateMutability": "view",
          "type": "function"
        },
        {
          "inputs": [],
          "name": "jumpMultiplierPerBlock",
          "outputs": [
            {
              "internalType": "uint256",
              "name": "",
              "type": "uint256"
            }
          ],
          "stateMutability": "view",
          "type": "function"
        },
        {
          "inputs": [],
          "name": "kink",
          "outputs": [
            {
              "internalType": "uint256",
              "name": "",
              "type": "uint256"
            }
          ],
          "stateMutability": "view",
          "type": "function"
        },
        {
          "inputs": [],
          "name": "multiplierPerBlock",
          "outputs": [
            {
              "internalType": "uint256",
              "name": "",
              "type": "uint256"
            }
          ],
          "stateMutability": "view",
          "type": "function"
        },
        {
          "inputs": [],
          "name": "owner",
          "outputs": [
            {
              "internalType": "address",
              "name": "",
              "type": "address"
            }
          ],
          "stateMutability": "view",
          "type": "function"
        },
        {
          "inputs": [],
          "name": "renounceOwnership",
          "outputs": [],
          "stateMutability": "nonpayable",
          "type": "function"
        },
        {
          "inputs": [
            {
              "internalType": "address",
              "name": "newOwner",
              "type": "address"
            }
          ],
          "name": "transferOwnership",
          "outputs": [],
          "stateMutability": "nonpayable",
          "type": "function"
        },
        {
          "inputs": [
            {
              "internalType": "uint256",
              "name": "baseRatePerYear",
              "type": "uint256"
            },
            {
              "internalType": "uint256",
              "name": "multiplierPerYear",
              "type": "uint256"
            },
            {
              "internalType": "uint256",
              "name": "jumpMultiplierPerYear",
              "type": "uint256"
            },
            {
              "internalType": "uint256",
              "name": "_kink",
              "type": "uint256"
            }
          ],
          "name": "updateJumpRateModel",
          "outputs": [],
          "stateMutability": "nonpayable",
          "type": "function"
        }
      ],
      "evm": {
        "bytecode": {
          "linkReferences": {},
          "object": "60a06040523480156200001157600080fd5b50604051620013f3380380620013f38339818101604052810190620000379190620003e4565b620000576200004b6200007f60201b60201c565b6200008760201b60201c565b6200006c85858585856200014b60201b60201c565b80608081815250505050505050620005fb565b600033905090565b60008060009054906101000a900473ffffffffffffffffffffffffffffffffffffffff169050816000806101000a81548173ffffffffffffffffffffffffffffffffffffffff021916908373ffffffffffffffffffffffffffffffffffffffff1602179055508173ffffffffffffffffffffffffffffffffffffffff168173ffffffffffffffffffffffffffffffffffffffff167f8be0079c531659141344cd1fd0a4f28419497f9722a3daafe3b4186f6b6457e060405160405180910390a35050565b8085620001599190620004ca565b60018190555062000186828262000171919062000502565b85620001ae60201b620005591790919060201c565b60028190555080836200019a9190620004ca565b600381905550816004819055505050505050565b6000620001cb83670de0b6b3a764000084620001d360201b60201c565b905092915050565b6000806000801985870985870292508281108382030391505060008114156200021157600084116200020457600080fd5b838204925050506200039d565b8084116200021e57600080fd5b600084868809905082811182039150808303925060006001861962000244919062000563565b8616905080860495508084049350600181826000030401905080836200026b919062000502565b841793506000600287600362000282919062000502565b189050808762000293919062000502565b6002620002a19190620005c0565b81620002ae919062000502565b90508087620002be919062000502565b6002620002cc9190620005c0565b81620002d9919062000502565b90508087620002e9919062000502565b6002620002f79190620005c0565b8162000304919062000502565b9050808762000314919062000502565b6002620003229190620005c0565b816200032f919062000502565b905080876200033f919062000502565b60026200034d9190620005c0565b816200035a919062000502565b905080876200036a919062000502565b6002620003789190620005c0565b8162000385919062000502565b9050808562000395919062000502565b955050505050505b9392505050565b600080fd5b6000819050919050565b620003be81620003a9565b8114620003ca57600080fd5b50565b600081519050620003de81620003b3565b92915050565b600080600080600060a08688031215620004035762000402620003a4565b5b60006200041388828901620003cd565b95505060206200042688828901620003cd565b94505060406200043988828901620003cd565b93505060606200044c88828901620003cd565b92505060806200045f88828901620003cd565b9150509295509295909350565b7f4e487b7100000000000000000000000000000000000000000000000000000000600052601260045260246000fd5b7f4e487b7100000000000000000000000000000000000000000000000000000000600052601160045260246000fd5b6000620004d782620003a9565b9150620004e483620003a9565b925082620004f757620004f66200046c565b5b828204905092915050565b60006200050f82620003a9565b91506200051c83620003a9565b9250817fffffffffffffffffffffffffffffffffffffffffffffffffffffffffffffffff04831182151516156200055857620005576200049b565b5b828202905092915050565b60006200057082620003a9565b91506200057d83620003a9565b9250827fffffffffffffffffffffffffffffffffffffffffffffffffffffffffffffffff03821115620005b557620005b46200049b565b5b828201905092915050565b6000620005cd82620003a9565b9150620005da83620003a9565b925082821015620005f057620005ef6200049b565b5b828203905092915050565b608051610dd56200061e6000396000818161028901526104330152610dd56000f3fe608060405234801561001057600080fd5b50600436106100a95760003560e01c8063b9f9850a11610071578063b9f9850a14610140578063cb5b83071461015e578063d37db1d21461018e578063f14039de146101ac578063f2fde38b146101ca578063fd2da339146101e6576100a9565b80632037f3e7146100ae5780635e124247146100ca578063715018a6146100fa5780638726bb89146101045780638da5cb5b14610122575b600080fd5b6100c860048036038101906100c39190610984565b610204565b005b6100e460048036038101906100df9190610984565b6102f5565b6040516100f191906109fa565b60405180910390f35b61010261035e565b005b61010c6103e6565b60405161011991906109fa565b60405180910390f35b61012a6103ec565b6040516101379190610a56565b60405180910390f35b610148610415565b60405161015591906109fa565b60405180910390f35b61017860048036038101906101739190610a71565b61041b565b60405161018591906109fa565b60405180910390f35b610196610431565b6040516101a391906109fa565b60405180910390f35b6101b4610455565b6040516101c191906109fa565b60405180910390f35b6101e460048036038101906101df9190610af0565b61045b565b005b6101ee610553565b6040516101fb91906109fa565b60405180910390f35b61020c610576565b73ffffffffffffffffffffffffffffffffffffffff1661022a6103ec565b73ffffffffffffffffffffffffffffffffffffffff1614610280576040517f08c379a000000000000000000000000000000000000000000000000000000000815260040161027790610b7a565b60405180910390fd5b6102ad848484847f000000000000000000000000000000000000000000000000000000000000000061057e565b6004546002546001547fd7ae5fad25391cf8c5c4c2570332742d2f60225cfaa4fb775ce878a2b8394be36003546040516102e791906109fa565b60405180910390a450505050565b60008082670de0b6b3a764000061030c9190610bc9565b9050600061031b8787876105d4565b90506000610332838361068190919063ffffffff16565b9050610351816103438a8a8a61069e565b61068190919063ffffffff16565b9350505050949350505050565b610366610576565b73ffffffffffffffffffffffffffffffffffffffff166103846103ec565b73ffffffffffffffffffffffffffffffffffffffff16146103da576040517f08c379a00000000000000000000000000000000000000000000000000000000081526004016103d190610b7a565b60405180910390fd5b6103e460006106e4565b565b60025481565b60008060009054906101000a900473ffffffffffffffffffffffffffffffffffffffff16905090565b60035481565b60006104288484846105d4565b90509392505050565b7f000000000000000000000000000000000000000000000000000000000000000081565b60015481565b610463610576565b73ffffffffffffffffffffffffffffffffffffffff166104816103ec565b73ffffffffffffffffffffffffffffffffffffffff16146104d7576040517f08c379a00000000000000000000000000000000000000000000000000000000081526004016104ce90610b7a565b60405180910390fd5b600073ffffffffffffffffffffffffffffffffffffffff168173ffffffffffffffffffffffffffffffffffffffff161415610547576040517f08c379a000000000000000000000000000000000000000000000000000000000815260040161053e90610c6f565b60405180910390fd5b610550816106e4565b50565b60045481565b600061056e83670de0b6b3a7640000846107a8565b905092915050565b600033905090565b808561058a9190610cbe565b6001819055506105ae828261059f9190610cef565b8561055990919063ffffffff16565b60028190555080836105c09190610cbe565b600381905550816004819055505050505050565b6000806105e285858561069e565b90506000600454905081811061061d5760015461060a6002548461068190919063ffffffff16565b6106149190610d49565b9250505061067a565b60006001546106376002548461068190919063ffffffff16565b6106419190610d49565b9050600082846106519190610bc9565b9050816106696003548361068190919063ffffffff16565b6106739190610d49565b9450505050505b9392505050565b60006106968383670de0b6b3a76400006107a8565b905092915050565b6000808314156106b157600090506106dd565b6106da8284866106c19190610d49565b6106cb9190610bc9565b8461055990919063ffffffff16565b90505b9392505050565b60008060009054906101000a900473ffffffffffffffffffffffffffffffffffffffff169050816000806101000a81548173ffffffffffffffffffffffffffffffffffffffff021916908373ffffffffffffffffffffffffffffffffffffffff1602179055508173ffffffffffffffffffffffffffffffffffffffff168173ffffffffffffffffffffffffffffffffffffffff167f8be0079c531659141344cd1fd0a4f28419497f9722a3daafe3b4186f6b6457e060405160405180910390a35050565b6000806000801985870985870292508281108382030391505060008114156107e357600084116107d757600080fd5b83820492505050610942565b8084116107ef57600080fd5b60008486880990508281118203915080830392506000600186196108139190610d49565b8616905080860495508084049350600181826000030401905080836108389190610cef565b841793506000600287600361084d9190610cef565b189050808761085c9190610cef565b60026108689190610bc9565b816108739190610cef565b905080876108819190610cef565b600261088d9190610bc9565b816108989190610cef565b905080876108a69190610cef565b60026108b29190610bc9565b816108bd9190610cef565b905080876108cb9190610cef565b60026108d79190610bc9565b816108e29190610cef565b905080876108f09190610cef565b60026108fc9190610bc9565b816109079190610cef565b905080876109159190610cef565b60026109219190610bc9565b8161092c9190610cef565b9050808561093a9190610cef565b955050505050505b9392505050565b600080fd5b6000819050919050565b6109618161094e565b811461096c57600080fd5b50565b60008135905061097e81610958565b92915050565b6000806000806080858703121561099e5761099d610949565b5b60006109ac8782880161096f565b94505060206109bd8782880161096f565b93505060406109ce8782880161096f565b92505060606109df8782880161096f565b91505092959194509250565b6109f48161094e565b82525050565b6000602082019050610a0f60008301846109eb565b92915050565b600073ffffffffffffffffffffffffffffffffffffffff82169050919050565b6000610a4082610a15565b9050919050565b610a5081610a35565b82525050565b6000602082019050610a6b6000830184610a47565b92915050565b600080600060608486031215610a8a57610a89610949565b5b6000610a988682870161096f565b9350506020610aa98682870161096f565b9250506040610aba8682870161096f565b9150509250925092565b610acd81610a35565b8114610ad857600080fd5b50565b600081359050610aea81610ac4565b92915050565b600060208284031215610b0657610b05610949565b5b6000610b1484828501610adb565b91505092915050565b600082825260208201905092915050565b7f4f776e61626c653a2063616c6c6572206973206e6f7420746865206f776e6572600082015250565b6000610b64602083610b1d565b9150610b6f82610b2e565b602082019050919050565b60006020820190508181036000830152610b9381610b57565b9050919050565b7f4e487b7100000000000000000000000000000000000000000000000000000000600052601160045260246000fd5b6000610bd48261094e565b9150610bdf8361094e565b925082821015610bf257610bf1610b9a565b5b828203905092915050565b7f4f776e61626c653a206e6577206f776e657220697320746865207a65726f206160008201527f6464726573730000000000000000000000000000000000000000000000000000602082015250565b6000610c59602683610b1d565b9150610c6482610bfd565b604082019050919050565b60006020820190508181036000830152610c8881610c4c565b9050919050565b7f4e487b7100000000000000000000000000000000000000000000000000000000600052601260045260246000fd5b6000610cc98261094e565b9150610cd48361094e565b925082610ce457610ce3610c8f565b5b828204905092915050565b6000610cfa8261094e565b9150610d058361094e565b9250817fffffffffffffffffffffffffffffffffffffffffffffffffffffffffffffffff0483118215151615610d3e57610d3d610b9a565b5b828202905092915050565b6000610d548261094e565b9150610d5f8361094e565b9250827fffffffffffffffffffffffffffffffffffffffffffffffffffffffffffffffff03821115610d9457610d93610b9a565b5b82820190509291505056fea26469706673582212202944167fb33ccde5f085583f09d24ad87f94f452ad0c40d909226acc89c1c14f64736f6c634300080c0033",
          "opcodes": "PUSH1 0xA0 PUSH1 0x40 MSTORE CALLVALUE DUP1 ISZERO PUSH3 0x11 JUMPI PUSH1 0x0 DUP1 REVERT JUMPDEST POP PUSH1 0x40 MLOAD PUSH3 0x13F3 CODESIZE SUB DUP1 PUSH3 0x13F3 DUP4 CODECOPY DUP2 DUP2 ADD PUSH1 0x40 MSTORE DUP2 ADD SWAP1 PUSH3 0x37 SWAP2 SWAP1 PUSH3 0x3E4 JUMP JUMPDEST PUSH3 0x57 PUSH3 0x4B PUSH3 0x7F PUSH1 0x20 SHL PUSH1 0x20 SHR JUMP JUMPDEST PUSH3 0x87 PUSH1 0x20 SHL PUSH1 0x20 SHR JUMP JUMPDEST PUSH3 0x6C DUP6 DUP6 DUP6 DUP6 DUP6 PUSH3 0x14B PUSH1 0x20 SHL PUSH1 0x20 SHR JUMP JUMPDEST DUP1 PUSH1 0x80 DUP2 DUP2 MSTORE POP POP POP POP POP POP POP PUSH3 0x5FB JUMP JUMPDEST PUSH1 0x0 CALLER SWAP1 POP SWAP1 JUMP JUMPDEST PUSH1 0x0 DUP1 PUSH1 0x0 SWAP1 SLOAD SWAP1 PUSH2 0x100 EXP SWAP1 DIV PUSH20 0xFFFFFFFFFFFFFFFFFFFFFFFFFFFFFFFFFFFFFFFF AND SWAP1 POP DUP2 PUSH1 0x0 DUP1 PUSH2 0x100 EXP DUP2 SLOAD DUP2 PUSH20 0xFFFFFFFFFFFFFFFFFFFFFFFFFFFFFFFFFFFFFFFF MUL NOT AND SWAP1 DUP4 PUSH20 0xFFFFFFFFFFFFFFFFFFFFFFFFFFFFFFFFFFFFFFFF AND MUL OR SWAP1 SSTORE POP DUP2 PUSH20 0xFFFFFFFFFFFFFFFFFFFFFFFFFFFFFFFFFFFFFFFF AND DUP2 PUSH20 0xFFFFFFFFFFFFFFFFFFFFFFFFFFFFFFFFFFFFFFFF AND PUSH32 0x8BE0079C531659141344CD1FD0A4F28419497F9722A3DAAFE3B4186F6B6457E0 PUSH1 0x40 MLOAD PUSH1 0x40 MLOAD DUP1 SWAP2 SUB SWAP1 LOG3 POP POP JUMP JUMPDEST DUP1 DUP6 PUSH3 0x159 SWAP2 SWAP1 PUSH3 0x4CA JUMP JUMPDEST PUSH1 0x1 DUP2 SWAP1 SSTORE POP PUSH3 0x186 DUP3 DUP3 PUSH3 0x171 SWAP2 SWAP1 PUSH3 0x502 JUMP JUMPDEST DUP6 PUSH3 0x1AE PUSH1 0x20 SHL PUSH3 0x559 OR SWAP1 SWAP2 SWAP1 PUSH1 0x20 SHR JUMP JUMPDEST PUSH1 0x2 DUP2 SWAP1 SSTORE POP DUP1 DUP4 PUSH3 0x19A SWAP2 SWAP1 PUSH3 0x4CA JUMP JUMPDEST PUSH1 0x3 DUP2 SWAP1 SSTORE POP DUP2 PUSH1 0x4 DUP2 SWAP1 SSTORE POP POP POP POP POP POP JUMP JUMPDEST PUSH1 0x0 PUSH3 0x1CB DUP4 PUSH8 0xDE0B6B3A7640000 DUP5 PUSH3 0x1D3 PUSH1 0x20 SHL PUSH1 0x20 SHR JUMP JUMPDEST SWAP1 POP SWAP3 SWAP2 POP POP JUMP JUMPDEST PUSH1 0x0 DUP1 PUSH1 0x0 DUP1 NOT DUP6 DUP8 MULMOD DUP6 DUP8 MUL SWAP3 POP DUP3 DUP2 LT DUP4 DUP3 SUB SUB SWAP2 POP POP PUSH1 0x0 DUP2 EQ ISZERO PUSH3 0x211 JUMPI PUSH1 0x0 DUP5 GT PUSH3 0x204 JUMPI PUSH1 0x0 DUP1 REVERT JUMPDEST DUP4 DUP3 DIV SWAP3 POP POP POP PUSH3 0x39D JUMP JUMPDEST DUP1 DUP5 GT PUSH3 0x21E JUMPI PUSH1 0x0 DUP1 REVERT JUMPDEST PUSH1 0x0 DUP5 DUP7 DUP9 MULMOD SWAP1 POP DUP3 DUP2 GT DUP3 SUB SWAP2 POP DUP1 DUP4 SUB SWAP3 POP PUSH1 0x0 PUSH1 0x1 DUP7 NOT PUSH3 0x244 SWAP2 SWAP1 PUSH3 0x563 JUMP JUMPDEST DUP7 AND SWAP1 POP DUP1 DUP7 DIV SWAP6 POP DUP1 DUP5 DIV SWAP4 POP PUSH1 0x1 DUP2 DUP3 PUSH1 0x0 SUB DIV ADD SWAP1 POP DUP1 DUP4 PUSH3 0x26B SWAP2 SWAP1 PUSH3 0x502 JUMP JUMPDEST DUP5 OR SWAP4 POP PUSH1 0x0 PUSH1 0x2 DUP8 PUSH1 0x3 PUSH3 0x282 SWAP2 SWAP1 PUSH3 0x502 JUMP JUMPDEST XOR SWAP1 POP DUP1 DUP8 PUSH3 0x293 SWAP2 SWAP1 PUSH3 0x502 JUMP JUMPDEST PUSH1 0x2 PUSH3 0x2A1 SWAP2 SWAP1 PUSH3 0x5C0 JUMP JUMPDEST DUP2 PUSH3 0x2AE SWAP2 SWAP1 PUSH3 0x502 JUMP JUMPDEST SWAP1 POP DUP1 DUP8 PUSH3 0x2BE SWAP2 SWAP1 PUSH3 0x502 JUMP JUMPDEST PUSH1 0x2 PUSH3 0x2CC SWAP2 SWAP1 PUSH3 0x5C0 JUMP JUMPDEST DUP2 PUSH3 0x2D9 SWAP2 SWAP1 PUSH3 0x502 JUMP JUMPDEST SWAP1 POP DUP1 DUP8 PUSH3 0x2E9 SWAP2 SWAP1 PUSH3 0x502 JUMP JUMPDEST PUSH1 0x2 PUSH3 0x2F7 SWAP2 SWAP1 PUSH3 0x5C0 JUMP JUMPDEST DUP2 PUSH3 0x304 SWAP2 SWAP1 PUSH3 0x502 JUMP JUMPDEST SWAP1 POP DUP1 DUP8 PUSH3 0x314 SWAP2 SWAP1 PUSH3 0x502 JUMP JUMPDEST PUSH1 0x2 PUSH3 0x322 SWAP2 SWAP1 PUSH3 0x5C0 JUMP JUMPDEST DUP2 PUSH3 0x32F SWAP2 SWAP1 PUSH3 0x502 JUMP JUMPDEST SWAP1 POP DUP1 DUP8 PUSH3 0x33F SWAP2 SWAP1 PUSH3 0x502 JUMP JUMPDEST PUSH1 0x2 PUSH3 0x34D SWAP2 SWAP1 PUSH3 0x5C0 JUMP JUMPDEST DUP2 PUSH3 0x35A SWAP2 SWAP1 PUSH3 0x502 JUMP JUMPDEST SWAP1 POP DUP1 DUP8 PUSH3 0x36A SWAP2 SWAP1 PUSH3 0x502 JUMP JUMPDEST PUSH1 0x2 PUSH3 0x378 SWAP2 SWAP1 PUSH3 0x5C0 JUMP JUMPDEST DUP2 PUSH3 0x385 SWAP2 SWAP1 PUSH3 0x502 JUMP JUMPDEST SWAP1 POP DUP1 DUP6 PUSH3 0x395 SWAP2 SWAP1 PUSH3 0x502 JUMP JUMPDEST SWAP6 POP POP POP POP POP POP JUMPDEST SWAP4 SWAP3 POP POP POP JUMP JUMPDEST PUSH1 0x0 DUP1 REVERT JUMPDEST PUSH1 0x0 DUP2 SWAP1 POP SWAP2 SWAP1 POP JUMP JUMPDEST PUSH3 0x3BE DUP2 PUSH3 0x3A9 JUMP JUMPDEST DUP2 EQ PUSH3 0x3CA JUMPI PUSH1 0x0 DUP1 REVERT JUMPDEST POP JUMP JUMPDEST PUSH1 0x0 DUP2 MLOAD SWAP1 POP PUSH3 0x3DE DUP2 PUSH3 0x3B3 JUMP JUMPDEST SWAP3 SWAP2 POP POP JUMP JUMPDEST PUSH1 0x0 DUP1 PUSH1 0x0 DUP1 PUSH1 0x0 PUSH1 0xA0 DUP7 DUP9 SUB SLT ISZERO PUSH3 0x403 JUMPI PUSH3 0x402 PUSH3 0x3A4 JUMP JUMPDEST JUMPDEST PUSH1 0x0 PUSH3 0x413 DUP9 DUP3 DUP10 ADD PUSH3 0x3CD JUMP JUMPDEST SWAP6 POP POP PUSH1 0x20 PUSH3 0x426 DUP9 DUP3 DUP10 ADD PUSH3 0x3CD JUMP JUMPDEST SWAP5 POP POP PUSH1 0x40 PUSH3 0x439 DUP9 DUP3 DUP10 ADD PUSH3 0x3CD JUMP JUMPDEST SWAP4 POP POP PUSH1 0x60 PUSH3 0x44C DUP9 DUP3 DUP10 ADD PUSH3 0x3CD JUMP JUMPDEST SWAP3 POP POP PUSH1 0x80 PUSH3 0x45F DUP9 DUP3 DUP10 ADD PUSH3 0x3CD JUMP JUMPDEST SWAP2 POP POP SWAP3 SWAP6 POP SWAP3 SWAP6 SWAP1 SWAP4 POP JUMP JUMPDEST PUSH32 0x4E487B7100000000000000000000000000000000000000000000000000000000 PUSH1 0x0 MSTORE PUSH1 0x12 PUSH1 0x4 MSTORE PUSH1 0x24 PUSH1 0x0 REVERT JUMPDEST PUSH32 0x4E487B7100000000000000000000000000000000000000000000000000000000 PUSH1 0x0 MSTORE PUSH1 0x11 PUSH1 0x4 MSTORE PUSH1 0x24 PUSH1 0x0 REVERT JUMPDEST PUSH1 0x0 PUSH3 0x4D7 DUP3 PUSH3 0x3A9 JUMP JUMPDEST SWAP2 POP PUSH3 0x4E4 DUP4 PUSH3 0x3A9 JUMP JUMPDEST SWAP3 POP DUP3 PUSH3 0x4F7 JUMPI PUSH3 0x4F6 PUSH3 0x46C JUMP JUMPDEST JUMPDEST DUP3 DUP3 DIV SWAP1 POP SWAP3 SWAP2 POP POP JUMP JUMPDEST PUSH1 0x0 PUSH3 0x50F DUP3 PUSH3 0x3A9 JUMP JUMPDEST SWAP2 POP PUSH3 0x51C DUP4 PUSH3 0x3A9 JUMP JUMPDEST SWAP3 POP DUP2 PUSH32 0xFFFFFFFFFFFFFFFFFFFFFFFFFFFFFFFFFFFFFFFFFFFFFFFFFFFFFFFFFFFFFFFF DIV DUP4 GT DUP3 ISZERO ISZERO AND ISZERO PUSH3 0x558 JUMPI PUSH3 0x557 PUSH3 0x49B JUMP JUMPDEST JUMPDEST DUP3 DUP3 MUL SWAP1 POP SWAP3 SWAP2 POP POP JUMP JUMPDEST PUSH1 0x0 PUSH3 0x570 DUP3 PUSH3 0x3A9 JUMP JUMPDEST SWAP2 POP PUSH3 0x57D DUP4 PUSH3 0x3A9 JUMP JUMPDEST SWAP3 POP DUP3 PUSH32 0xFFFFFFFFFFFFFFFFFFFFFFFFFFFFFFFFFFFFFFFFFFFFFFFFFFFFFFFFFFFFFFFF SUB DUP3 GT ISZERO PUSH3 0x5B5 JUMPI PUSH3 0x5B4 PUSH3 0x49B JUMP JUMPDEST JUMPDEST DUP3 DUP3 ADD SWAP1 POP SWAP3 SWAP2 POP POP JUMP JUMPDEST PUSH1 0x0 PUSH3 0x5CD DUP3 PUSH3 0x3A9 JUMP JUMPDEST SWAP2 POP PUSH3 0x5DA DUP4 PUSH3 0x3A9 JUMP JUMPDEST SWAP3 POP DUP3 DUP3 LT ISZERO PUSH3 0x5F0 JUMPI PUSH3 0x5EF PUSH3 0x49B JUMP JUMPDEST JUMPDEST DUP3 DUP3 SUB SWAP1 POP SWAP3 SWAP2 POP POP JUMP JUMPDEST PUSH1 0x80 MLOAD PUSH2 0xDD5 PUSH3 0x61E PUSH1 0x0 CODECOPY PUSH1 0x0 DUP2 DUP2 PUSH2 0x289 ADD MSTORE PUSH2 0x433 ADD MSTORE PUSH2 0xDD5 PUSH1 0x0 RETURN INVALID PUSH1 0x80 PUSH1 0x40 MSTORE CALLVALUE DUP1 ISZERO PUSH2 0x10 JUMPI PUSH1 0x0 DUP1 REVERT JUMPDEST POP PUSH1 0x4 CALLDATASIZE LT PUSH2 0xA9 JUMPI PUSH1 0x0 CALLDATALOAD PUSH1 0xE0 SHR DUP1 PUSH4 0xB9F9850A GT PUSH2 0x71 JUMPI DUP1 PUSH4 0xB9F9850A EQ PUSH2 0x140 JUMPI DUP1 PUSH4 0xCB5B8307 EQ PUSH2 0x15E JUMPI DUP1 PUSH4 0xD37DB1D2 EQ PUSH2 0x18E JUMPI DUP1 PUSH4 0xF14039DE EQ PUSH2 0x1AC JUMPI DUP1 PUSH4 0xF2FDE38B EQ PUSH2 0x1CA JUMPI DUP1 PUSH4 0xFD2DA339 EQ PUSH2 0x1E6 JUMPI PUSH2 0xA9 JUMP JUMPDEST DUP1 PUSH4 0x2037F3E7 EQ PUSH2 0xAE JUMPI DUP1 PUSH4 0x5E124247 EQ PUSH2 0xCA JUMPI DUP1 PUSH4 0x715018A6 EQ PUSH2 0xFA JUMPI DUP1 PUSH4 0x8726BB89 EQ PUSH2 0x104 JUMPI DUP1 PUSH4 0x8DA5CB5B EQ PUSH2 0x122 JUMPI JUMPDEST PUSH1 0x0 DUP1 REVERT JUMPDEST PUSH2 0xC8 PUSH1 0x4 DUP1 CALLDATASIZE SUB DUP2 ADD SWAP1 PUSH2 0xC3 SWAP2 SWAP1 PUSH2 0x984 JUMP JUMPDEST PUSH2 0x204 JUMP JUMPDEST STOP JUMPDEST PUSH2 0xE4 PUSH1 0x4 DUP1 CALLDATASIZE SUB DUP2 ADD SWAP1 PUSH2 0xDF SWAP2 SWAP1 PUSH2 0x984 JUMP JUMPDEST PUSH2 0x2F5 JUMP JUMPDEST PUSH1 0x40 MLOAD PUSH2 0xF1 SWAP2 SWAP1 PUSH2 0x9FA JUMP JUMPDEST PUSH1 0x40 MLOAD DUP1 SWAP2 SUB SWAP1 RETURN JUMPDEST PUSH2 0x102 PUSH2 0x35E JUMP JUMPDEST STOP JUMPDEST PUSH2 0x10C PUSH2 0x3E6 JUMP JUMPDEST PUSH1 0x40 MLOAD PUSH2 0x119 SWAP2 SWAP1 PUSH2 0x9FA JUMP JUMPDEST PUSH1 0x40 MLOAD DUP1 SWAP2 SUB SWAP1 RETURN JUMPDEST PUSH2 0x12A PUSH2 0x3EC JUMP JUMPDEST PUSH1 0x40 MLOAD PUSH2 0x137 SWAP2 SWAP1 PUSH2 0xA56 JUMP JUMPDEST PUSH1 0x40 MLOAD DUP1 SWAP2 SUB SWAP1 RETURN JUMPDEST PUSH2 0x148 PUSH2 0x415 JUMP JUMPDEST PUSH1 0x40 MLOAD PUSH2 0x155 SWAP2 SWAP1 PUSH2 0x9FA JUMP JUMPDEST PUSH1 0x40 MLOAD DUP1 SWAP2 SUB SWAP1 RETURN JUMPDEST PUSH2 0x178 PUSH1 0x4 DUP1 CALLDATASIZE SUB DUP2 ADD SWAP1 PUSH2 0x173 SWAP2 SWAP1 PUSH2 0xA71 JUMP JUMPDEST PUSH2 0x41B JUMP JUMPDEST PUSH1 0x40 MLOAD PUSH2 0x185 SWAP2 SWAP1 PUSH2 0x9FA JUMP JUMPDEST PUSH1 0x40 MLOAD DUP1 SWAP2 SUB SWAP1 RETURN JUMPDEST PUSH2 0x196 PUSH2 0x431 JUMP JUMPDEST PUSH1 0x40 MLOAD PUSH2 0x1A3 SWAP2 SWAP1 PUSH2 0x9FA JUMP JUMPDEST PUSH1 0x40 MLOAD DUP1 SWAP2 SUB SWAP1 RETURN JUMPDEST PUSH2 0x1B4 PUSH2 0x455 JUMP JUMPDEST PUSH1 0x40 MLOAD PUSH2 0x1C1 SWAP2 SWAP1 PUSH2 0x9FA JUMP JUMPDEST PUSH1 0x40 MLOAD DUP1 SWAP2 SUB SWAP1 RETURN JUMPDEST PUSH2 0x1E4 PUSH1 0x4 DUP1 CALLDATASIZE SUB DUP2 ADD SWAP1 PUSH2 0x1DF SWAP2 SWAP1 PUSH2 0xAF0 JUMP JUMPDEST PUSH2 0x45B JUMP JUMPDEST STOP JUMPDEST PUSH2 0x1EE PUSH2 0x553 JUMP JUMPDEST PUSH1 0x40 MLOAD PUSH2 0x1FB SWAP2 SWAP1 PUSH2 0x9FA JUMP JUMPDEST PUSH1 0x40 MLOAD DUP1 SWAP2 SUB SWAP1 RETURN JUMPDEST PUSH2 0x20C PUSH2 0x576 JUMP JUMPDEST PUSH20 0xFFFFFFFFFFFFFFFFFFFFFFFFFFFFFFFFFFFFFFFF AND PUSH2 0x22A PUSH2 0x3EC JUMP JUMPDEST PUSH20 0xFFFFFFFFFFFFFFFFFFFFFFFFFFFFFFFFFFFFFFFF AND EQ PUSH2 0x280 JUMPI PUSH1 0x40 MLOAD PUSH32 0x8C379A000000000000000000000000000000000000000000000000000000000 DUP2 MSTORE PUSH1 0x4 ADD PUSH2 0x277 SWAP1 PUSH2 0xB7A JUMP JUMPDEST PUSH1 0x40 MLOAD DUP1 SWAP2 SUB SWAP1 REVERT JUMPDEST PUSH2 0x2AD DUP5 DUP5 DUP5 DUP5 PUSH32 0x0 PUSH2 0x57E JUMP JUMPDEST PUSH1 0x4 SLOAD PUSH1 0x2 SLOAD PUSH1 0x1 SLOAD PUSH32 0xD7AE5FAD25391CF8C5C4C2570332742D2F60225CFAA4FB775CE878A2B8394BE3 PUSH1 0x3 SLOAD PUSH1 0x40 MLOAD PUSH2 0x2E7 SWAP2 SWAP1 PUSH2 0x9FA JUMP JUMPDEST PUSH1 0x40 MLOAD DUP1 SWAP2 SUB SWAP1 LOG4 POP POP POP POP JUMP JUMPDEST PUSH1 0x0 DUP1 DUP3 PUSH8 0xDE0B6B3A7640000 PUSH2 0x30C SWAP2 SWAP1 PUSH2 0xBC9 JUMP JUMPDEST SWAP1 POP PUSH1 0x0 PUSH2 0x31B DUP8 DUP8 DUP8 PUSH2 0x5D4 JUMP JUMPDEST SWAP1 POP PUSH1 0x0 PUSH2 0x332 DUP4 DUP4 PUSH2 0x681 SWAP1 SWAP2 SWAP1 PUSH4 0xFFFFFFFF AND JUMP JUMPDEST SWAP1 POP PUSH2 0x351 DUP2 PUSH2 0x343 DUP11 DUP11 DUP11 PUSH2 0x69E JUMP JUMPDEST PUSH2 0x681 SWAP1 SWAP2 SWAP1 PUSH4 0xFFFFFFFF AND JUMP JUMPDEST SWAP4 POP POP POP POP SWAP5 SWAP4 POP POP POP POP JUMP JUMPDEST PUSH2 0x366 PUSH2 0x576 JUMP JUMPDEST PUSH20 0xFFFFFFFFFFFFFFFFFFFFFFFFFFFFFFFFFFFFFFFF AND PUSH2 0x384 PUSH2 0x3EC JUMP JUMPDEST PUSH20 0xFFFFFFFFFFFFFFFFFFFFFFFFFFFFFFFFFFFFFFFF AND EQ PUSH2 0x3DA JUMPI PUSH1 0x40 MLOAD PUSH32 0x8C379A000000000000000000000000000000000000000000000000000000000 DUP2 MSTORE PUSH1 0x4 ADD PUSH2 0x3D1 SWAP1 PUSH2 0xB7A JUMP JUMPDEST PUSH1 0x40 MLOAD DUP1 SWAP2 SUB SWAP1 REVERT JUMPDEST PUSH2 0x3E4 PUSH1 0x0 PUSH2 0x6E4 JUMP JUMPDEST JUMP JUMPDEST PUSH1 0x2 SLOAD DUP2 JUMP JUMPDEST PUSH1 0x0 DUP1 PUSH1 0x0 SWAP1 SLOAD SWAP1 PUSH2 0x100 EXP SWAP1 DIV PUSH20 0xFFFFFFFFFFFFFFFFFFFFFFFFFFFFFFFFFFFFFFFF AND SWAP1 POP SWAP1 JUMP JUMPDEST PUSH1 0x3 SLOAD DUP2 JUMP JUMPDEST PUSH1 0x0 PUSH2 0x428 DUP5 DUP5 DUP5 PUSH2 0x5D4 JUMP JUMPDEST SWAP1 POP SWAP4 SWAP3 POP POP POP JUMP JUMPDEST PUSH32 0x0 DUP2 JUMP JUMPDEST PUSH1 0x1 SLOAD DUP2 JUMP JUMPDEST PUSH2 0x463 PUSH2 0x576 JUMP JUMPDEST PUSH20 0xFFFFFFFFFFFFFFFFFFFFFFFFFFFFFFFFFFFFFFFF AND PUSH2 0x481 PUSH2 0x3EC JUMP JUMPDEST PUSH20 0xFFFFFFFFFFFFFFFFFFFFFFFFFFFFFFFFFFFFFFFF AND EQ PUSH2 0x4D7 JUMPI PUSH1 0x40 MLOAD PUSH32 0x8C379A000000000000000000000000000000000000000000000000000000000 DUP2 MSTORE PUSH1 0x4 ADD PUSH2 0x4CE SWAP1 PUSH2 0xB7A JUMP JUMPDEST PUSH1 0x40 MLOAD DUP1 SWAP2 SUB SWAP1 REVERT JUMPDEST PUSH1 0x0 PUSH20 0xFFFFFFFFFFFFFFFFFFFFFFFFFFFFFFFFFFFFFFFF AND DUP2 PUSH20 0xFFFFFFFFFFFFFFFFFFFFFFFFFFFFFFFFFFFFFFFF AND EQ ISZERO PUSH2 0x547 JUMPI PUSH1 0x40 MLOAD PUSH32 0x8C379A000000000000000000000000000000000000000000000000000000000 DUP2 MSTORE PUSH1 0x4 ADD PUSH2 0x53E SWAP1 PUSH2 0xC6F JUMP JUMPDEST PUSH1 0x40 MLOAD DUP1 SWAP2 SUB SWAP1 REVERT JUMPDEST PUSH2 0x550 DUP2 PUSH2 0x6E4 JUMP JUMPDEST POP JUMP JUMPDEST PUSH1 0x4 SLOAD DUP2 JUMP JUMPDEST PUSH1 0x0 PUSH2 0x56E DUP4 PUSH8 0xDE0B6B3A7640000 DUP5 PUSH2 0x7A8 JUMP JUMPDEST SWAP1 POP SWAP3 SWAP2 POP POP JUMP JUMPDEST PUSH1 0x0 CALLER SWAP1 POP SWAP1 JUMP JUMPDEST DUP1 DUP6 PUSH2 0x58A SWAP2 SWAP1 PUSH2 0xCBE JUMP JUMPDEST PUSH1 0x1 DUP2 SWAP1 SSTORE POP PUSH2 0x5AE DUP3 DUP3 PUSH2 0x59F SWAP2 SWAP1 PUSH2 0xCEF JUMP JUMPDEST DUP6 PUSH2 0x559 SWAP1 SWAP2 SWAP1 PUSH4 0xFFFFFFFF AND JUMP JUMPDEST PUSH1 0x2 DUP2 SWAP1 SSTORE POP DUP1 DUP4 PUSH2 0x5C0 SWAP2 SWAP1 PUSH2 0xCBE JUMP JUMPDEST PUSH1 0x3 DUP2 SWAP1 SSTORE POP DUP2 PUSH1 0x4 DUP2 SWAP1 SSTORE POP POP POP POP POP POP JUMP JUMPDEST PUSH1 0x0 DUP1 PUSH2 0x5E2 DUP6 DUP6 DUP6 PUSH2 0x69E JUMP JUMPDEST SWAP1 POP PUSH1 0x0 PUSH1 0x4 SLOAD SWAP1 POP DUP2 DUP2 LT PUSH2 0x61D JUMPI PUSH1 0x1 SLOAD PUSH2 0x60A PUSH1 0x2 SLOAD DUP5 PUSH2 0x681 SWAP1 SWAP2 SWAP1 PUSH4 0xFFFFFFFF AND JUMP JUMPDEST PUSH2 0x614 SWAP2 SWAP1 PUSH2 0xD49 JUMP JUMPDEST SWAP3 POP POP POP PUSH2 0x67A JUMP JUMPDEST PUSH1 0x0 PUSH1 0x1 SLOAD PUSH2 0x637 PUSH1 0x2 SLOAD DUP5 PUSH2 0x681 SWAP1 SWAP2 SWAP1 PUSH4 0xFFFFFFFF AND JUMP JUMPDEST PUSH2 0x641 SWAP2 SWAP1 PUSH2 0xD49 JUMP JUMPDEST SWAP1 POP PUSH1 0x0 DUP3 DUP5 PUSH2 0x651 SWAP2 SWAP1 PUSH2 0xBC9 JUMP JUMPDEST SWAP1 POP DUP2 PUSH2 0x669 PUSH1 0x3 SLOAD DUP4 PUSH2 0x681 SWAP1 SWAP2 SWAP1 PUSH4 0xFFFFFFFF AND JUMP JUMPDEST PUSH2 0x673 SWAP2 SWAP1 PUSH2 0xD49 JUMP JUMPDEST SWAP5 POP POP POP POP POP JUMPDEST SWAP4 SWAP3 POP POP POP JUMP JUMPDEST PUSH1 0x0 PUSH2 0x696 DUP4 DUP4 PUSH8 0xDE0B6B3A7640000 PUSH2 0x7A8 JUMP JUMPDEST SWAP1 POP SWAP3 SWAP2 POP POP JUMP JUMPDEST PUSH1 0x0 DUP1 DUP4 EQ ISZERO PUSH2 0x6B1 JUMPI PUSH1 0x0 SWAP1 POP PUSH2 0x6DD JUMP JUMPDEST PUSH2 0x6DA DUP3 DUP5 DUP7 PUSH2 0x6C1 SWAP2 SWAP1 PUSH2 0xD49 JUMP JUMPDEST PUSH2 0x6CB SWAP2 SWAP1 PUSH2 0xBC9 JUMP JUMPDEST DUP5 PUSH2 0x559 SWAP1 SWAP2 SWAP1 PUSH4 0xFFFFFFFF AND JUMP JUMPDEST SWAP1 POP JUMPDEST SWAP4 SWAP3 POP POP POP JUMP JUMPDEST PUSH1 0x0 DUP1 PUSH1 0x0 SWAP1 SLOAD SWAP1 PUSH2 0x100 EXP SWAP1 DIV PUSH20 0xFFFFFFFFFFFFFFFFFFFFFFFFFFFFFFFFFFFFFFFF AND SWAP1 POP DUP2 PUSH1 0x0 DUP1 PUSH2 0x100 EXP DUP2 SLOAD DUP2 PUSH20 0xFFFFFFFFFFFFFFFFFFFFFFFFFFFFFFFFFFFFFFFF MUL NOT AND SWAP1 DUP4 PUSH20 0xFFFFFFFFFFFFFFFFFFFFFFFFFFFFFFFFFFFFFFFF AND MUL OR SWAP1 SSTORE POP DUP2 PUSH20 0xFFFFFFFFFFFFFFFFFFFFFFFFFFFFFFFFFFFFFFFF AND DUP2 PUSH20 0xFFFFFFFFFFFFFFFFFFFFFFFFFFFFFFFFFFFFFFFF AND PUSH32 0x8BE0079C531659141344CD1FD0A4F28419497F9722A3DAAFE3B4186F6B6457E0 PUSH1 0x40 MLOAD PUSH1 0x40 MLOAD DUP1 SWAP2 SUB SWAP1 LOG3 POP POP JUMP JUMPDEST PUSH1 0x0 DUP1 PUSH1 0x0 DUP1 NOT DUP6 DUP8 MULMOD DUP6 DUP8 MUL SWAP3 POP DUP3 DUP2 LT DUP4 DUP3 SUB SUB SWAP2 POP POP PUSH1 0x0 DUP2 EQ ISZERO PUSH2 0x7E3 JUMPI PUSH1 0x0 DUP5 GT PUSH2 0x7D7 JUMPI PUSH1 0x0 DUP1 REVERT JUMPDEST DUP4 DUP3 DIV SWAP3 POP POP POP PUSH2 0x942 JUMP JUMPDEST DUP1 DUP5 GT PUSH2 0x7EF JUMPI PUSH1 0x0 DUP1 REVERT JUMPDEST PUSH1 0x0 DUP5 DUP7 DUP9 MULMOD SWAP1 POP DUP3 DUP2 GT DUP3 SUB SWAP2 POP DUP1 DUP4 SUB SWAP3 POP PUSH1 0x0 PUSH1 0x1 DUP7 NOT PUSH2 0x813 SWAP2 SWAP1 PUSH2 0xD49 JUMP JUMPDEST DUP7 AND SWAP1 POP DUP1 DUP7 DIV SWAP6 POP DUP1 DUP5 DIV SWAP4 POP PUSH1 0x1 DUP2 DUP3 PUSH1 0x0 SUB DIV ADD SWAP1 POP DUP1 DUP4 PUSH2 0x838 SWAP2 SWAP1 PUSH2 0xCEF JUMP JUMPDEST DUP5 OR SWAP4 POP PUSH1 0x0 PUSH1 0x2 DUP8 PUSH1 0x3 PUSH2 0x84D SWAP2 SWAP1 PUSH2 0xCEF JUMP JUMPDEST XOR SWAP1 POP DUP1 DUP8 PUSH2 0x85C SWAP2 SWAP1 PUSH2 0xCEF JUMP JUMPDEST PUSH1 0x2 PUSH2 0x868 SWAP2 SWAP1 PUSH2 0xBC9 JUMP JUMPDEST DUP2 PUSH2 0x873 SWAP2 SWAP1 PUSH2 0xCEF JUMP JUMPDEST SWAP1 POP DUP1 DUP8 PUSH2 0x881 SWAP2 SWAP1 PUSH2 0xCEF JUMP JUMPDEST PUSH1 0x2 PUSH2 0x88D SWAP2 SWAP1 PUSH2 0xBC9 JUMP JUMPDEST DUP2 PUSH2 0x898 SWAP2 SWAP1 PUSH2 0xCEF JUMP JUMPDEST SWAP1 POP DUP1 DUP8 PUSH2 0x8A6 SWAP2 SWAP1 PUSH2 0xCEF JUMP JUMPDEST PUSH1 0x2 PUSH2 0x8B2 SWAP2 SWAP1 PUSH2 0xBC9 JUMP JUMPDEST DUP2 PUSH2 0x8BD SWAP2 SWAP1 PUSH2 0xCEF JUMP JUMPDEST SWAP1 POP DUP1 DUP8 PUSH2 0x8CB SWAP2 SWAP1 PUSH2 0xCEF JUMP JUMPDEST PUSH1 0x2 PUSH2 0x8D7 SWAP2 SWAP1 PUSH2 0xBC9 JUMP JUMPDEST DUP2 PUSH2 0x8E2 SWAP2 SWAP1 PUSH2 0xCEF JUMP JUMPDEST SWAP1 POP DUP1 DUP8 PUSH2 0x8F0 SWAP2 SWAP1 PUSH2 0xCEF JUMP JUMPDEST PUSH1 0x2 PUSH2 0x8FC SWAP2 SWAP1 PUSH2 0xBC9 JUMP JUMPDEST DUP2 PUSH2 0x907 SWAP2 SWAP1 PUSH2 0xCEF JUMP JUMPDEST SWAP1 POP DUP1 DUP8 PUSH2 0x915 SWAP2 SWAP1 PUSH2 0xCEF JUMP JUMPDEST PUSH1 0x2 PUSH2 0x921 SWAP2 SWAP1 PUSH2 0xBC9 JUMP JUMPDEST DUP2 PUSH2 0x92C SWAP2 SWAP1 PUSH2 0xCEF JUMP JUMPDEST SWAP1 POP DUP1 DUP6 PUSH2 0x93A SWAP2 SWAP1 PUSH2 0xCEF JUMP JUMPDEST SWAP6 POP POP POP POP POP POP JUMPDEST SWAP4 SWAP3 POP POP POP JUMP JUMPDEST PUSH1 0x0 DUP1 REVERT JUMPDEST PUSH1 0x0 DUP2 SWAP1 POP SWAP2 SWAP1 POP JUMP JUMPDEST PUSH2 0x961 DUP2 PUSH2 0x94E JUMP JUMPDEST DUP2 EQ PUSH2 0x96C JUMPI PUSH1 0x0 DUP1 REVERT JUMPDEST POP JUMP JUMPDEST PUSH1 0x0 DUP2 CALLDATALOAD SWAP1 POP PUSH2 0x97E DUP2 PUSH2 0x958 JUMP JUMPDEST SWAP3 SWAP2 POP POP JUMP JUMPDEST PUSH1 0x0 DUP1 PUSH1 0x0 DUP1 PUSH1 0x80 DUP6 DUP8 SUB SLT ISZERO PUSH2 0x99E JUMPI PUSH2 0x99D PUSH2 0x949 JUMP JUMPDEST JUMPDEST PUSH1 0x0 PUSH2 0x9AC DUP8 DUP3 DUP9 ADD PUSH2 0x96F JUMP JUMPDEST SWAP5 POP POP PUSH1 0x20 PUSH2 0x9BD DUP8 DUP3 DUP9 ADD PUSH2 0x96F JUMP JUMPDEST SWAP4 POP POP PUSH1 0x40 PUSH2 0x9CE DUP8 DUP3 DUP9 ADD PUSH2 0x96F JUMP JUMPDEST SWAP3 POP POP PUSH1 0x60 PUSH2 0x9DF DUP8 DUP3 DUP9 ADD PUSH2 0x96F JUMP JUMPDEST SWAP2 POP POP SWAP3 SWAP6 SWAP2 SWAP5 POP SWAP3 POP JUMP JUMPDEST PUSH2 0x9F4 DUP2 PUSH2 0x94E JUMP JUMPDEST DUP3 MSTORE POP POP JUMP JUMPDEST PUSH1 0x0 PUSH1 0x20 DUP3 ADD SWAP1 POP PUSH2 0xA0F PUSH1 0x0 DUP4 ADD DUP5 PUSH2 0x9EB JUMP JUMPDEST SWAP3 SWAP2 POP POP JUMP JUMPDEST PUSH1 0x0 PUSH20 0xFFFFFFFFFFFFFFFFFFFFFFFFFFFFFFFFFFFFFFFF DUP3 AND SWAP1 POP SWAP2 SWAP1 POP JUMP JUMPDEST PUSH1 0x0 PUSH2 0xA40 DUP3 PUSH2 0xA15 JUMP JUMPDEST SWAP1 POP SWAP2 SWAP1 POP JUMP JUMPDEST PUSH2 0xA50 DUP2 PUSH2 0xA35 JUMP JUMPDEST DUP3 MSTORE POP POP JUMP JUMPDEST PUSH1 0x0 PUSH1 0x20 DUP3 ADD SWAP1 POP PUSH2 0xA6B PUSH1 0x0 DUP4 ADD DUP5 PUSH2 0xA47 JUMP JUMPDEST SWAP3 SWAP2 POP POP JUMP JUMPDEST PUSH1 0x0 DUP1 PUSH1 0x0 PUSH1 0x60 DUP5 DUP7 SUB SLT ISZERO PUSH2 0xA8A JUMPI PUSH2 0xA89 PUSH2 0x949 JUMP JUMPDEST JUMPDEST PUSH1 0x0 PUSH2 0xA98 DUP7 DUP3 DUP8 ADD PUSH2 0x96F JUMP JUMPDEST SWAP4 POP POP PUSH1 0x20 PUSH2 0xAA9 DUP7 DUP3 DUP8 ADD PUSH2 0x96F JUMP JUMPDEST SWAP3 POP POP PUSH1 0x40 PUSH2 0xABA DUP7 DUP3 DUP8 ADD PUSH2 0x96F JUMP JUMPDEST SWAP2 POP POP SWAP3 POP SWAP3 POP SWAP3 JUMP JUMPDEST PUSH2 0xACD DUP2 PUSH2 0xA35 JUMP JUMPDEST DUP2 EQ PUSH2 0xAD8 JUMPI PUSH1 0x0 DUP1 REVERT JUMPDEST POP JUMP JUMPDEST PUSH1 0x0 DUP2 CALLDATALOAD SWAP1 POP PUSH2 0xAEA DUP2 PUSH2 0xAC4 JUMP JUMPDEST SWAP3 SWAP2 POP POP JUMP JUMPDEST PUSH1 0x0 PUSH1 0x20 DUP3 DUP5 SUB SLT ISZERO PUSH2 0xB06 JUMPI PUSH2 0xB05 PUSH2 0x949 JUMP JUMPDEST JUMPDEST PUSH1 0x0 PUSH2 0xB14 DUP5 DUP3 DUP6 ADD PUSH2 0xADB JUMP JUMPDEST SWAP2 POP POP SWAP3 SWAP2 POP POP JUMP JUMPDEST PUSH1 0x0 DUP3 DUP3 MSTORE PUSH1 0x20 DUP3 ADD SWAP1 POP SWAP3 SWAP2 POP POP JUMP JUMPDEST PUSH32 0x4F776E61626C653A2063616C6C6572206973206E6F7420746865206F776E6572 PUSH1 0x0 DUP3 ADD MSTORE POP JUMP JUMPDEST PUSH1 0x0 PUSH2 0xB64 PUSH1 0x20 DUP4 PUSH2 0xB1D JUMP JUMPDEST SWAP2 POP PUSH2 0xB6F DUP3 PUSH2 0xB2E JUMP JUMPDEST PUSH1 0x20 DUP3 ADD SWAP1 POP SWAP2 SWAP1 POP JUMP JUMPDEST PUSH1 0x0 PUSH1 0x20 DUP3 ADD SWAP1 POP DUP2 DUP2 SUB PUSH1 0x0 DUP4 ADD MSTORE PUSH2 0xB93 DUP2 PUSH2 0xB57 JUMP JUMPDEST SWAP1 POP SWAP2 SWAP1 POP JUMP JUMPDEST PUSH32 0x4E487B7100000000000000000000000000000000000000000000000000000000 PUSH1 0x0 MSTORE PUSH1 0x11 PUSH1 0x4 MSTORE PUSH1 0x24 PUSH1 0x0 REVERT JUMPDEST PUSH1 0x0 PUSH2 0xBD4 DUP3 PUSH2 0x94E JUMP JUMPDEST SWAP2 POP PUSH2 0xBDF DUP4 PUSH2 0x94E JUMP JUMPDEST SWAP3 POP DUP3 DUP3 LT ISZERO PUSH2 0xBF2 JUMPI PUSH2 0xBF1 PUSH2 0xB9A JUMP JUMPDEST JUMPDEST DUP3 DUP3 SUB SWAP1 POP SWAP3 SWAP2 POP POP JUMP JUMPDEST PUSH32 0x4F776E61626C653A206E6577206F776E657220697320746865207A65726F2061 PUSH1 0x0 DUP3 ADD MSTORE PUSH32 0x6464726573730000000000000000000000000000000000000000000000000000 PUSH1 0x20 DUP3 ADD MSTORE POP JUMP JUMPDEST PUSH1 0x0 PUSH2 0xC59 PUSH1 0x26 DUP4 PUSH2 0xB1D JUMP JUMPDEST SWAP2 POP PUSH2 0xC64 DUP3 PUSH2 0xBFD JUMP JUMPDEST PUSH1 0x40 DUP3 ADD SWAP1 POP SWAP2 SWAP1 POP JUMP JUMPDEST PUSH1 0x0 PUSH1 0x20 DUP3 ADD SWAP1 POP DUP2 DUP2 SUB PUSH1 0x0 DUP4 ADD MSTORE PUSH2 0xC88 DUP2 PUSH2 0xC4C JUMP JUMPDEST SWAP1 POP SWAP2 SWAP1 POP JUMP JUMPDEST PUSH32 0x4E487B7100000000000000000000000000000000000000000000000000000000 PUSH1 0x0 MSTORE PUSH1 0x12 PUSH1 0x4 MSTORE PUSH1 0x24 PUSH1 0x0 REVERT JUMPDEST PUSH1 0x0 PUSH2 0xCC9 DUP3 PUSH2 0x94E JUMP JUMPDEST SWAP2 POP PUSH2 0xCD4 DUP4 PUSH2 0x94E JUMP JUMPDEST SWAP3 POP DUP3 PUSH2 0xCE4 JUMPI PUSH2 0xCE3 PUSH2 0xC8F JUMP JUMPDEST JUMPDEST DUP3 DUP3 DIV SWAP1 POP SWAP3 SWAP2 POP POP JUMP JUMPDEST PUSH1 0x0 PUSH2 0xCFA DUP3 PUSH2 0x94E JUMP JUMPDEST SWAP2 POP PUSH2 0xD05 DUP4 PUSH2 0x94E JUMP JUMPDEST SWAP3 POP DUP2 PUSH32 0xFFFFFFFFFFFFFFFFFFFFFFFFFFFFFFFFFFFFFFFFFFFFFFFFFFFFFFFFFFFFFFFF DIV DUP4 GT DUP3 ISZERO ISZERO AND ISZERO PUSH2 0xD3E JUMPI PUSH2 0xD3D PUSH2 0xB9A JUMP JUMPDEST JUMPDEST DUP3 DUP3 MUL SWAP1 POP SWAP3 SWAP2 POP POP JUMP JUMPDEST PUSH1 0x0 PUSH2 0xD54 DUP3 PUSH2 0x94E JUMP JUMPDEST SWAP2 POP PUSH2 0xD5F DUP4 PUSH2 0x94E JUMP JUMPDEST SWAP3 POP DUP3 PUSH32 0xFFFFFFFFFFFFFFFFFFFFFFFFFFFFFFFFFFFFFFFFFFFFFFFFFFFFFFFFFFFFFFFF SUB DUP3 GT ISZERO PUSH2 0xD94 JUMPI PUSH2 0xD93 PUSH2 0xB9A JUMP JUMPDEST JUMPDEST DUP3 DUP3 ADD SWAP1 POP SWAP3 SWAP2 POP POP JUMP INVALID LOG2 PUSH5 0x6970667358 0x22 SLT KECCAK256 0x29 DIFFICULTY AND PUSH32 0xB33CCDE5F085583F09D24AD87F94F452AD0C40D909226ACC89C1C14F64736F6C PUSH4 0x4300080C STOP CALLER "
        },
        "methodIdentifiers": {
          "BLOCKS_PER_YEAR()": "d37db1d2",
          "baseRatePerBlock()": "f14039de",
          "getBorrowRatePerBlock(uint256,uint256,uint256)": "cb5b8307",
          "getSupplyRatePerBlock(uint256,uint256,uint256,uint256)": "5e124247",
          "jumpMultiplierPerBlock()": "b9f9850a",
          "kink()": "fd2da339",
          "multiplierPerBlock()": "8726bb89",
          "owner()": "8da5cb5b",
          "renounceOwnership()": "715018a6",
          "transferOwnership(address)": "f2fde38b",
          "updateJumpRateModel(uint256,uint256,uint256,uint256)": "2037f3e7"
        }
      },
      "storageLayout": {
        "storage": [
          {
            "astId": 7,
            "contract": "contracts/JumpInterestRateModel.sol:JumpInterestRateModel",
            "label": "_owner",
            "offset": 0,
            "slot": "0",
            "type": "t_address"
          },
          {
            "astId": 151,
            "contract": "contracts/JumpInterestRateModel.sol:JumpInterestRateModel",
            "label": "baseRatePerBlock",
            "offset": 0,
            "slot": "1",
            "type": "t_uint256"
          },
          {
            "astId": 154,
            "contract": "contracts/JumpInterestRateModel.sol:JumpInterestRateModel",
            "label": "multiplierPerBlock",
            "offset": 0,
            "slot": "2",
            "type": "t_uint256"
          },
          {
            "astId": 157,
            "contract": "contracts/JumpInterestRateModel.sol:JumpInterestRateModel",
            "label": "jumpMultiplierPerBlock",
            "offset": 0,
            "slot": "3",
            "type": "t_uint256"
          },
          {
            "astId": 160,
            "contract": "contracts/JumpInterestRateModel.sol:JumpInterestRateModel",
            "label": "kink",
            "offset": 0,
            "slot": "4",
            "type": "t_uint256"
          }
        ],
        "types": {
          "t_address": {
            "encoding": "inplace",
            "label": "address",
            "numberOfBytes": "20"
          },
          "t_uint256": {
            "encoding": "inplace",
            "label": "uint256",
            "numberOfBytes": "32"
          }
        }
      }
    }
  }
}