{
  "_format": "hh-sol-artifact-1",
  "contractName": "MAILDeployer",
  "sourceName": "contracts/MAILDeployer.sol",
  "abi": [
    {
      "inputs": [
        {
          "internalType": "address",
          "name": "uniswapV3Factory",
          "type": "address"
        },
        {
          "internalType": "address",
          "name": "btc",
          "type": "address"
        },
        {
          "internalType": "address",
          "name": "bridgeToken",
          "type": "address"
        },
        {
          "internalType": "address",
          "name": "usdc",
          "type": "address"
        },
        {
          "internalType": "address",
          "name": "usdt",
          "type": "address"
        },
        {
          "internalType": "address",
          "name": "oracle",
          "type": "address"
        },
        {
          "internalType": "address",
          "name": "_treasury",
          "type": "address"
        },
        {
          "internalType": "uint256",
          "name": "_reserveFactor",
          "type": "uint256"
        },
        {
          "internalType": "bytes",
          "name": "modelData",
          "type": "bytes"
        }
      ],
      "stateMutability": "nonpayable",
      "type": "constructor"
    },
    {
      "anonymous": false,
      "inputs": [
        {
          "indexed": true,
          "internalType": "address",
          "name": "market",
          "type": "address"
        }
      ],
      "name": "MarketCreated",
      "type": "event"
    },
    {
      "anonymous": false,
      "inputs": [
        {
          "indexed": true,
          "internalType": "uint256",
          "name": "fee",
          "type": "uint256"
        }
      ],
      "name": "NewUniSwapFee",
      "type": "event"
    },
    {
      "anonymous": false,
      "inputs": [
        {
          "indexed": true,
          "internalType": "address",
          "name": "previousOwner",
          "type": "address"
        },
        {
          "indexed": true,
          "internalType": "address",
          "name": "newOwner",
          "type": "address"
        }
      ],
      "name": "OwnershipTransferred",
      "type": "event"
    },
    {
      "anonymous": false,
      "inputs": [
        {
          "indexed": true,
          "internalType": "address",
          "name": "token",
          "type": "address"
        },
        {
          "indexed": true,
          "internalType": "address",
          "name": "interestRateModel",
          "type": "address"
        }
      ],
      "name": "SetInterestRateModel",
      "type": "event"
    },
    {
      "anonymous": false,
      "inputs": [
        {
          "indexed": false,
          "internalType": "uint256",
          "name": "amount",
          "type": "uint256"
        }
      ],
      "name": "SetReserveFactor",
      "type": "event"
    },
    {
      "anonymous": false,
      "inputs": [
        {
          "indexed": true,
          "internalType": "address",
          "name": "account",
          "type": "address"
        }
      ],
      "name": "SetTreasury",
      "type": "event"
    },
    {
      "inputs": [],
      "name": "BRIDGE_TOKEN",
      "outputs": [
        {
          "internalType": "address",
          "name": "",
          "type": "address"
        }
      ],
      "stateMutability": "view",
      "type": "function"
    },
    {
      "inputs": [],
      "name": "BTC",
      "outputs": [
        {
          "internalType": "address",
          "name": "",
          "type": "address"
        }
      ],
      "stateMutability": "view",
      "type": "function"
    },
    {
      "inputs": [],
      "name": "ORACLE",
      "outputs": [
        {
          "internalType": "address",
          "name": "",
          "type": "address"
        }
      ],
      "stateMutability": "view",
      "type": "function"
    },
    {
      "inputs": [],
      "name": "UNISWAP_V3_FACTORY",
      "outputs": [
        {
          "internalType": "address",
          "name": "",
          "type": "address"
        }
      ],
      "stateMutability": "view",
      "type": "function"
    },
    {
      "inputs": [],
      "name": "USDC",
      "outputs": [
        {
          "internalType": "address",
          "name": "",
          "type": "address"
        }
      ],
      "stateMutability": "view",
      "type": "function"
    },
    {
      "inputs": [],
      "name": "USDT",
      "outputs": [
        {
          "internalType": "address",
          "name": "",
          "type": "address"
        }
      ],
      "stateMutability": "view",
      "type": "function"
    },
    {
      "inputs": [
        {
          "internalType": "uint24",
          "name": "fee",
          "type": "uint24"
        }
      ],
      "name": "addUniswapV3Fee",
      "outputs": [],
      "stateMutability": "nonpayable",
      "type": "function"
    },
    {
      "inputs": [
        {
          "internalType": "address",
          "name": "_riskyAsset",
          "type": "address"
        }
      ],
      "name": "deploy",
      "outputs": [
        {
          "internalType": "address",
          "name": "market",
          "type": "address"
        }
      ],
      "stateMutability": "nonpayable",
      "type": "function"
    },
    {
      "inputs": [
        {
          "internalType": "uint256",
          "name": "",
          "type": "uint256"
        }
      ],
      "name": "fees",
      "outputs": [
        {
          "internalType": "uint24",
          "name": "",
          "type": "uint24"
        }
      ],
      "stateMutability": "view",
      "type": "function"
    },
    {
      "inputs": [
        {
          "internalType": "address",
          "name": "",
          "type": "address"
        }
      ],
      "name": "getInterestRateModel",
      "outputs": [
        {
          "internalType": "address",
          "name": "",
          "type": "address"
        }
      ],
      "stateMutability": "view",
      "type": "function"
    },
    {
      "inputs": [
        {
          "internalType": "address",
          "name": "",
          "type": "address"
        }
      ],
      "name": "getMarket",
      "outputs": [
        {
          "internalType": "address",
          "name": "",
          "type": "address"
        }
      ],
      "stateMutability": "view",
      "type": "function"
    },
    {
      "inputs": [],
      "name": "owner",
      "outputs": [
        {
          "internalType": "address",
          "name": "",
          "type": "address"
        }
      ],
      "stateMutability": "view",
      "type": "function"
    },
    {
      "inputs": [
        {
          "internalType": "address",
          "name": "_riskyAsset",
          "type": "address"
        }
      ],
      "name": "predictMarketAddress",
      "outputs": [
        {
          "internalType": "address",
          "name": "",
          "type": "address"
        }
      ],
      "stateMutability": "view",
      "type": "function"
    },
    {
      "inputs": [],
      "name": "renounceOwnership",
      "outputs": [],
      "stateMutability": "nonpayable",
      "type": "function"
    },
    {
      "inputs": [],
      "name": "reserveFactor",
      "outputs": [
        {
          "internalType": "uint256",
          "name": "",
          "type": "uint256"
        }
      ],
      "stateMutability": "view",
      "type": "function"
    },
    {
      "inputs": [],
      "name": "riskyAsset",
      "outputs": [
        {
          "internalType": "address",
          "name": "",
          "type": "address"
        }
      ],
      "stateMutability": "view",
      "type": "function"
    },
    {
      "inputs": [],
      "name": "riskyAssetInterestRateModel",
      "outputs": [
        {
          "internalType": "address",
          "name": "",
          "type": "address"
        }
      ],
      "stateMutability": "view",
      "type": "function"
    },
    {
      "inputs": [
        {
          "internalType": "address",
          "name": "token",
          "type": "address"
        },
        {
          "internalType": "address",
          "name": "interestRateModel",
          "type": "address"
        }
      ],
      "name": "setInterestRateModel",
      "outputs": [],
      "stateMutability": "nonpayable",
      "type": "function"
    },
    {
      "inputs": [
        {
          "internalType": "uint256",
          "name": "amount",
          "type": "uint256"
        }
      ],
      "name": "setReserveFactor",
      "outputs": [],
      "stateMutability": "nonpayable",
      "type": "function"
    },
    {
      "inputs": [
        {
          "internalType": "address",
          "name": "interestRateModel",
          "type": "address"
        }
      ],
      "name": "setRiskyAssetInterestRateModel",
      "outputs": [],
      "stateMutability": "nonpayable",
      "type": "function"
    },
    {
      "inputs": [
        {
          "internalType": "address",
          "name": "account",
          "type": "address"
        }
      ],
      "name": "setTreasury",
      "outputs": [],
      "stateMutability": "nonpayable",
      "type": "function"
    },
    {
      "inputs": [
        {
          "internalType": "address",
          "name": "newOwner",
          "type": "address"
        }
      ],
      "name": "transferOwnership",
      "outputs": [],
      "stateMutability": "nonpayable",
      "type": "function"
    },
    {
      "inputs": [],
      "name": "treasury",
      "outputs": [
        {
          "internalType": "address",
          "name": "",
          "type": "address"
        }
      ],
      "stateMutability": "view",
      "type": "function"
    }
  ],
  "bytecode": "0x6101406040523480156200001257600080fd5b5060405162003a0d38038062003a0d833981810160405281019062000038919062000bf1565b620000586200004c620008e860201b60201c565b620008f060201b60201c565b60008060008060008580602001905181019062000076919062000d34565b94509450945094509450600073ffffffffffffffffffffffffffffffffffffffff168573ffffffffffffffffffffffffffffffffffffffff161415620000f3576040517f08c379a0000000000000000000000000000000000000000000000000000000008152600401620000ea9062000e1d565b60405180910390fd5b600073ffffffffffffffffffffffffffffffffffffffff168473ffffffffffffffffffffffffffffffffffffffff16141562000166576040517f08c379a00000000000000000000000000000000000000000000000000000000081526004016200015d9062000e8f565b60405180910390fd5b600073ffffffffffffffffffffffffffffffffffffffff168273ffffffffffffffffffffffffffffffffffffffff161415620001d9576040517f08c379a0000000000000000000000000000000000000000000000000000000008152600401620001d09062000f01565b60405180910390fd5b600073ffffffffffffffffffffffffffffffffffffffff168373ffffffffffffffffffffffffffffffffffffffff1614156200024c576040517f08c379a0000000000000000000000000000000000000000000000000000000008152600401620002439062000f73565b60405180910390fd5b600073ffffffffffffffffffffffffffffffffffffffff168173ffffffffffffffffffffffffffffffffffffffff161415620002bf576040517f08c379a0000000000000000000000000000000000000000000000000000000008152600401620002b69062000fe5565b60405180910390fd5b600073ffffffffffffffffffffffffffffffffffffffff168e73ffffffffffffffffffffffffffffffffffffffff16141562000332576040517f08c379a0000000000000000000000000000000000000000000000000000000008152600401620003299062001057565b60405180910390fd5b600073ffffffffffffffffffffffffffffffffffffffff168973ffffffffffffffffffffffffffffffffffffffff161415620003a5576040517f08c379a00000000000000000000000000000000000000000000000000000000081526004016200039c90620010c9565b60405180910390fd5b60056101f490806001815401808255809150506001900390600052602060002090600a91828204019190066003029091909190916101000a81548162ffffff021916908362ffffff1602179055506005610bb890806001815401808255809150506001900390600052602060002090600a91828204019190066003029091909190916101000a81548162ffffff021916908362ffffff160217905550600561271090806001815401808255809150506001900390600052602060002090600a91828204019190066003029091909190916101000a81548162ffffff021916908362ffffff1602179055506001600660006101f4815260200190815260200160002060006101000a81548160ff021916908315150217905550600160066000610bb8815260200190815260200160002060006101000a81548160ff021916908315150217905550600160066000612710815260200190815260200160002060006101000a81548160ff0219169083151502179055508d73ffffffffffffffffffffffffffffffffffffffff1660808173ffffffffffffffffffffffffffffffffffffffff16815250508c73ffffffffffffffffffffffffffffffffffffffff1660a08173ffffffffffffffffffffffffffffffffffffffff16815250508b73ffffffffffffffffffffffffffffffffffffffff1660c08173ffffffffffffffffffffffffffffffffffffffff16815250508a73ffffffffffffffffffffffffffffffffffffffff1660e08173ffffffffffffffffffffffffffffffffffffffff16815250508973ffffffffffffffffffffffffffffffffffffffff166101008173ffffffffffffffffffffffffffffffffffffffff16815250508873ffffffffffffffffffffffffffffffffffffffff166101208173ffffffffffffffffffffffffffffffffffffffff168152505087600260006101000a81548173ffffffffffffffffffffffffffffffffffffffff021916908373ffffffffffffffffffffffffffffffffffffffff1602179055508660038190555084600860008f73ffffffffffffffffffffffffffffffffffffffff1673ffffffffffffffffffffffffffffffffffffffff16815260200190815260200160002060006101000a81548173ffffffffffffffffffffffffffffffffffffffff021916908373ffffffffffffffffffffffffffffffffffffffff16021790555083600860008d73ffffffffffffffffffffffffffffffffffffffff1673ffffffffffffffffffffffffffffffffffffffff16815260200190815260200160002060006101000a81548173ffffffffffffffffffffffffffffffffffffffff021916908373ffffffffffffffffffffffffffffffffffffffff16021790555081600860008c73ffffffffffffffffffffffffffffffffffffffff1673ffffffffffffffffffffffffffffffffffffffff16815260200190815260200160002060006101000a81548173ffffffffffffffffffffffffffffffffffffffff021916908373ffffffffffffffffffffffffffffffffffffffff16021790555082600860008e73ffffffffffffffffffffffffffffffffffffffff1673ffffffffffffffffffffffffffffffffffffffff16815260200190815260200160002060006101000a81548173ffffffffffffffffffffffffffffffffffffffff021916908373ffffffffffffffffffffffffffffffffffffffff16021790555080600460006101000a81548173ffffffffffffffffffffffffffffffffffffffff021916908373ffffffffffffffffffffffffffffffffffffffff1602179055505050505050505050505050505050620010eb565b600033905090565b60008060009054906101000a900473ffffffffffffffffffffffffffffffffffffffff169050816000806101000a81548173ffffffffffffffffffffffffffffffffffffffff021916908373ffffffffffffffffffffffffffffffffffffffff1602179055508173ffffffffffffffffffffffffffffffffffffffff168173ffffffffffffffffffffffffffffffffffffffff167f8be0079c531659141344cd1fd0a4f28419497f9722a3daafe3b4186f6b6457e060405160405180910390a35050565b6000604051905090565b600080fd5b600080fd5b600073ffffffffffffffffffffffffffffffffffffffff82169050919050565b6000620009f582620009c8565b9050919050565b62000a0781620009e8565b811462000a1357600080fd5b50565b60008151905062000a2781620009fc565b92915050565b6000819050919050565b62000a428162000a2d565b811462000a4e57600080fd5b50565b60008151905062000a628162000a37565b92915050565b600080fd5b600080fd5b6000601f19601f8301169050919050565b7f4e487b7100000000000000000000000000000000000000000000000000000000600052604160045260246000fd5b62000abd8262000a72565b810181811067ffffffffffffffff8211171562000adf5762000ade62000a83565b5b80604052505050565b600062000af4620009b4565b905062000b02828262000ab2565b919050565b600067ffffffffffffffff82111562000b255762000b2462000a83565b5b62000b308262000a72565b9050602081019050919050565b60005b8381101562000b5d57808201518184015260208101905062000b40565b8381111562000b6d576000848401525b50505050565b600062000b8a62000b848462000b07565b62000ae8565b90508281526020810184848401111562000ba95762000ba862000a6d565b5b62000bb684828562000b3d565b509392505050565b600082601f83011262000bd65762000bd562000a68565b5b815162000be884826020860162000b73565b91505092915050565b60008060008060008060008060006101208a8c03121562000c175762000c16620009be565b5b600062000c278c828d0162000a16565b995050602062000c3a8c828d0162000a16565b985050604062000c4d8c828d0162000a16565b975050606062000c608c828d0162000a16565b965050608062000c738c828d0162000a16565b95505060a062000c868c828d0162000a16565b94505060c062000c998c828d0162000a16565b93505060e062000cac8c828d0162000a51565b9250506101008a015167ffffffffffffffff81111562000cd15762000cd0620009c3565b5b62000cdf8c828d0162000bbe565b9150509295985092959850929598565b600062000cfc82620009c8565b9050919050565b62000d0e8162000cef565b811462000d1a57600080fd5b50565b60008151905062000d2e8162000d03565b92915050565b600080600080600060a0868803121562000d535762000d52620009be565b5b600062000d638882890162000d1d565b955050602062000d768882890162000d1d565b945050604062000d898882890162000d1d565b935050606062000d9c8882890162000d1d565b925050608062000daf8882890162000d1d565b9150509295509295909350565b600082825260208201905092915050565b7f6274633a206e6f207a65726f2061646472657373000000000000000000000000600082015250565b600062000e0560148362000dbc565b915062000e128262000dcd565b602082019050919050565b6000602082019050818103600083015262000e388162000df6565b9050919050565b7f757364633a206e6f207a65726f20616464726573730000000000000000000000600082015250565b600062000e7760158362000dbc565b915062000e848262000e3f565b602082019050919050565b6000602082019050818103600083015262000eaa8162000e68565b9050919050565b7f757364743a206e6f207a65726f20616464726573730000000000000000000000600082015250565b600062000ee960158362000dbc565b915062000ef68262000eb1565b602082019050919050565b6000602082019050818103600083015262000f1c8162000eda565b9050919050565b7f62743a206e6f207a65726f206164647265737300000000000000000000000000600082015250565b600062000f5b60138362000dbc565b915062000f688262000f23565b602082019050919050565b6000602082019050818103600083015262000f8e8162000f4c565b9050919050565b7f72613a206e6f207a65726f206164647265737300000000000000000000000000600082015250565b600062000fcd60138362000dbc565b915062000fda8262000f95565b602082019050919050565b60006020820190508181036000830152620010008162000fbe565b9050919050565b7f756e693a206e6f207a65726f2061646472657373000000000000000000000000600082015250565b60006200103f60148362000dbc565b91506200104c8262001007565b602082019050919050565b60006020820190508181036000830152620010728162001030565b9050919050565b7f6f7261636c653a206e6f207a65726f2061646472657373000000000000000000600082015250565b6000620010b160178362000dbc565b9150620010be8262001079565b602082019050919050565b60006020820190508181036000830152620010e481620010a2565b9050919050565b60805160a05160c05160e05161010051610120516128a8620011656000396000610923015260008181610b3f0152611201015260008181610aad0152610ff00152600081816104c301528181610a1b01526116500152600081816108ff01526109890152600081816115fb015261167501526128a86000f3fe60806040523480156200001157600080fd5b50600436106200016c5760003560e01c8063715018a611620000d5578063cdbe29421162000087578063cdbe294214620003e7578063d4dfadbf1462000407578063f0f44260146200043d578063f2fde38b146200045d578063f73e5aab146200047d578063fa437902146200049f576200016c565b8063715018a6146200033357806389a30271146200033f5780638da5cb5b1462000361578063a2ab2d351462000383578063bb20279314620003a3578063c54e44eb14620003c5576200016c565b806338013f02116200012f57806338013f02146200022b5780634322b714146200024d5780634acc79ed146200026f5780634c96a38914620002a557806354a0577114620002db57806361d027b31462000311576200016c565b80630d1ec495146200017157806317585b1214620001935780631c44698314620001b3578063215610ef14620001d35780632792949d1462000209575b600080fd5b6200017b620004c1565b6040516200018a919062001944565b60405180910390f35b620001b16004803603810190620001ab919062001997565b620004e5565b005b620001d16004803603810190620001cb919062001a19565b6200072a565b005b620001f16004803603810190620001eb919062001a4b565b6200083e565b60405162000200919062001944565b60405180910390f35b62000213620008fd565b60405162000222919062001944565b60405180910390f35b6200023562000921565b60405162000244919062001944565b60405180910390f35b6200025762000945565b60405162000266919062001a8e565b60405180910390f35b6200028d600480360381019062000287919062001a19565b6200094b565b6040516200029c919062001acb565b60405180910390f35b620002c36004803603810190620002bd919062001a4b565b62000985565b604051620002d2919062001944565b60405180910390f35b620002f96004803603810190620002f3919062001a4b565b62000f04565b60405162000308919062001944565b60405180910390f35b6200031b62000f37565b6040516200032a919062001944565b60405180910390f35b6200033d62000f5d565b005b6200034962000fee565b60405162000358919062001944565b60405180910390f35b6200036b62001012565b6040516200037a919062001944565b60405180910390f35b620003a160048036038101906200039b919062001b19565b6200103b565b005b620003ad620011d9565b604051620003bc919062001944565b60405180910390f35b620003cf620011ff565b604051620003de919062001944565b60405180910390f35b620004056004803603810190620003ff919062001a4b565b62001223565b005b6200042560048036038101906200041f919062001a4b565b620013b8565b60405162000434919062001944565b60405180910390f35b6200045b600480360381019062000455919062001a4b565b620013eb565b005b6200047b600480360381019062000475919062001a4b565b620014f5565b005b62000487620015f9565b60405162000496919062001944565b60405180910390f35b620004a96200161d565b604051620004b8919062001944565b60405180910390f35b7f000000000000000000000000000000000000000000000000000000000000000081565b620004ef62001643565b73ffffffffffffffffffffffffffffffffffffffff166200050f62001012565b73ffffffffffffffffffffffffffffffffffffffff161462000568576040517f08c379a00000000000000000000000000000000000000000000000000000000081526004016200055f9062001bac565b60405180910390fd5b600073ffffffffffffffffffffffffffffffffffffffff168273ffffffffffffffffffffffffffffffffffffffff161415620005db576040517f08c379a0000000000000000000000000000000000000000000000000000000008152600401620005d29062001c1e565b60405180910390fd5b600073ffffffffffffffffffffffffffffffffffffffff168173ffffffffffffffffffffffffffffffffffffffff1614156200064e576040517f08c379a0000000000000000000000000000000000000000000000000000000008152600401620006459062001c1e565b60405180910390fd5b80600860008473ffffffffffffffffffffffffffffffffffffffff1673ffffffffffffffffffffffffffffffffffffffff16815260200190815260200160002060006101000a81548173ffffffffffffffffffffffffffffffffffffffff021916908373ffffffffffffffffffffffffffffffffffffffff1602179055508073ffffffffffffffffffffffffffffffffffffffff168273ffffffffffffffffffffffffffffffffffffffff167faa0318754c43eb4a32620f6f8887531662fb2f7f5deb5ab2b318f63a0c9f076260405160405180910390a35050565b6200073462001643565b73ffffffffffffffffffffffffffffffffffffffff166200075462001012565b73ffffffffffffffffffffffffffffffffffffffff1614620007ad576040517f08c379a0000000000000000000000000000000000000000000000000000000008152600401620007a49062001bac565b60405180910390fd5b6703782dace9d90000811115620007fb576040517f08c379a0000000000000000000000000000000000000000000000000000000008152600401620007f29062001c90565b60405180910390fd5b806003819055507f70e29bbbf4d9c30b51ec64a67a421144b85f741063eb2d448663a7e15a6433868160405162000833919062001a8e565b60405180910390a150565b60008030905060008360405160200162000859919062001944565b6040516020818303038152906040528051906020012090506000604051806020016200088590620018f1565b6020820181038252601f19601f82011660405250604051602001620008ab919062001d35565b604051602081830303815290604052805190602001209050828282604051602001620008da9392919062001e28565b6040516020818303038152906040528051906020012060001c9350505050919050565b7f000000000000000000000000000000000000000000000000000000000000000081565b7f000000000000000000000000000000000000000000000000000000000000000081565b60035481565b600581815481106200095c57600080fd5b90600052602060002090600a9182820401919006600302915054906101000a900462ffffff1681565b60007f000000000000000000000000000000000000000000000000000000000000000073ffffffffffffffffffffffffffffffffffffffff168273ffffffffffffffffffffffffffffffffffffffff16141562000a19576040517f08c379a000000000000000000000000000000000000000000000000000000000815260040162000a109062001ec8565b60405180910390fd5b7f000000000000000000000000000000000000000000000000000000000000000073ffffffffffffffffffffffffffffffffffffffff168273ffffffffffffffffffffffffffffffffffffffff16141562000aab576040517f08c379a000000000000000000000000000000000000000000000000000000000815260040162000aa29062001f3a565b60405180910390fd5b7f000000000000000000000000000000000000000000000000000000000000000073ffffffffffffffffffffffffffffffffffffffff168273ffffffffffffffffffffffffffffffffffffffff16141562000b3d576040517f08c379a000000000000000000000000000000000000000000000000000000000815260040162000b349062001fac565b60405180910390fd5b7f000000000000000000000000000000000000000000000000000000000000000073ffffffffffffffffffffffffffffffffffffffff168273ffffffffffffffffffffffffffffffffffffffff16141562000bcf576040517f08c379a000000000000000000000000000000000000000000000000000000000815260040162000bc6906200201e565b60405180910390fd5b600073ffffffffffffffffffffffffffffffffffffffff168273ffffffffffffffffffffffffffffffffffffffff16141562000c42576040517f08c379a000000000000000000000000000000000000000000000000000000000815260040162000c399062001c1e565b60405180910390fd5b62000c4d826200164b565b62000c8f576040517f08c379a000000000000000000000000000000000000000000000000000000000815260040162000c869062002090565b60405180910390fd5b600073ffffffffffffffffffffffffffffffffffffffff16600760008473ffffffffffffffffffffffffffffffffffffffff1673ffffffffffffffffffffffffffffffffffffffff16815260200190815260200160002060009054906101000a900473ffffffffffffffffffffffffffffffffffffffff1673ffffffffffffffffffffffffffffffffffffffff161462000d60576040517f08c379a000000000000000000000000000000000000000000000000000000000815260040162000d579062002102565b60405180910390fd5b81600160006101000a81548173ffffffffffffffffffffffffffffffffffffffff021916908373ffffffffffffffffffffffffffffffffffffffff1602179055508160405160200162000db4919062002124565b6040516020818303038152906040528051906020012060405162000dd890620018f1565b8190604051809103906000f590508015801562000df9573d6000803e3d6000fd5b5090506000600160006101000a81548173ffffffffffffffffffffffffffffffffffffffff021916908373ffffffffffffffffffffffffffffffffffffffff16021790555080600760008473ffffffffffffffffffffffffffffffffffffffff1673ffffffffffffffffffffffffffffffffffffffff16815260200190815260200160002060006101000a81548173ffffffffffffffffffffffffffffffffffffffff021916908373ffffffffffffffffffffffffffffffffffffffff1602179055508073ffffffffffffffffffffffffffffffffffffffff167fb27af04ab132a0b6bba5de2a84bbbadcc31c20c33932936a992ae6ff951259c360405160405180910390a2919050565b60086020528060005260406000206000915054906101000a900473ffffffffffffffffffffffffffffffffffffffff1681565b600260009054906101000a900473ffffffffffffffffffffffffffffffffffffffff1681565b62000f6762001643565b73ffffffffffffffffffffffffffffffffffffffff1662000f8762001012565b73ffffffffffffffffffffffffffffffffffffffff161462000fe0576040517f08c379a000000000000000000000000000000000000000000000000000000000815260040162000fd79062001bac565b60405180910390fd5b62000fec60006200182d565b565b7f000000000000000000000000000000000000000000000000000000000000000081565b60008060009054906101000a900473ffffffffffffffffffffffffffffffffffffffff16905090565b6200104562001643565b73ffffffffffffffffffffffffffffffffffffffff166200106562001012565b73ffffffffffffffffffffffffffffffffffffffff1614620010be576040517f08c379a0000000000000000000000000000000000000000000000000000000008152600401620010b59062001bac565b60405180910390fd5b600660008262ffffff16815260200190815260200160002060009054906101000a900460ff161562001127576040517f08c379a00000000000000000000000000000000000000000000000000000000081526004016200111e9062002191565b60405180910390fd5b6001600660008362ffffff16815260200190815260200160002060006101000a81548160ff02191690831515021790555060058190806001815401808255809150506001900390600052602060002090600a91828204019190066003029091909190916101000a81548162ffffff021916908362ffffff1602179055508062ffffff167f0860ab3cfee589c3eea5e468799b60c1bb9ba85d0c651f79cd087f6dea19304b60405160405180910390a250565b600160009054906101000a900473ffffffffffffffffffffffffffffffffffffffff1681565b7f000000000000000000000000000000000000000000000000000000000000000081565b6200122d62001643565b73ffffffffffffffffffffffffffffffffffffffff166200124d62001012565b73ffffffffffffffffffffffffffffffffffffffff1614620012a6576040517f08c379a00000000000000000000000000000000000000000000000000000000081526004016200129d9062001bac565b60405180910390fd5b600073ffffffffffffffffffffffffffffffffffffffff168173ffffffffffffffffffffffffffffffffffffffff16141562001319576040517f08c379a0000000000000000000000000000000000000000000000000000000008152600401620013109062001c1e565b60405180910390fd5b80600460006101000a81548173ffffffffffffffffffffffffffffffffffffffff021916908373ffffffffffffffffffffffffffffffffffffffff1602179055508073ffffffffffffffffffffffffffffffffffffffff16600073ffffffffffffffffffffffffffffffffffffffff167faa0318754c43eb4a32620f6f8887531662fb2f7f5deb5ab2b318f63a0c9f076260405160405180910390a350565b60076020528060005260406000206000915054906101000a900473ffffffffffffffffffffffffffffffffffffffff1681565b620013f562001643565b73ffffffffffffffffffffffffffffffffffffffff166200141562001012565b73ffffffffffffffffffffffffffffffffffffffff16146200146e576040517f08c379a0000000000000000000000000000000000000000000000000000000008152600401620014659062001bac565b60405180910390fd5b80600260006101000a81548173ffffffffffffffffffffffffffffffffffffffff021916908373ffffffffffffffffffffffffffffffffffffffff1602179055508073ffffffffffffffffffffffffffffffffffffffff167fcb7ef3e545f5cdb893f5c568ba710fe08f336375a2d9fd66e161033f8fc09ef360405160405180910390a250565b620014ff62001643565b73ffffffffffffffffffffffffffffffffffffffff166200151f62001012565b73ffffffffffffffffffffffffffffffffffffffff161462001578576040517f08c379a00000000000000000000000000000000000000000000000000000000081526004016200156f9062001bac565b60405180910390fd5b600073ffffffffffffffffffffffffffffffffffffffff168173ffffffffffffffffffffffffffffffffffffffff161415620015eb576040517f08c379a0000000000000000000000000000000000000000000000000000000008152600401620015e29062002229565b60405180910390fd5b620015f6816200182d565b50565b7f000000000000000000000000000000000000000000000000000000000000000081565b600460009054906101000a900473ffffffffffffffffffffffffffffffffffffffff1681565b600033905090565b6000807f0000000000000000000000000000000000000000000000000000000000000000905060007f0000000000000000000000000000000000000000000000000000000000000000905060008060058054806020026020016040519081016040528092919081815260200182805480156200171157602002820191906000526020600020906000905b82829054906101000a900462ffffff1662ffffff1681526020019060030190602082600201049283019260010382029150808411620016d55790505b5050505050905060005b8151811015620018205760008473ffffffffffffffffffffffffffffffffffffffff16631698ee82878a8686815181106200175b576200175a6200224b565b5b60200260200101516040518463ffffffff1660e01b815260040162001783939291906200227a565b602060405180830381865afa158015620017a1573d6000803e3d6000fd5b505050506040513d601f19601f82011682018060405250810190620017c79190620022ce565b9050600073ffffffffffffffffffffffffffffffffffffffff168173ffffffffffffffffffffffffffffffffffffffff16146200180957600193505062001820565b50808062001817906200232f565b9150506200171b565b5081945050505050919050565b60008060009054906101000a900473ffffffffffffffffffffffffffffffffffffffff169050816000806101000a81548173ffffffffffffffffffffffffffffffffffffffff021916908373ffffffffffffffffffffffffffffffffffffffff1602179055508173ffffffffffffffffffffffffffffffffffffffff168173ffffffffffffffffffffffffffffffffffffffff167f8be0079c531659141344cd1fd0a4f28419497f9722a3daafe3b4186f6b6457e060405160405180910390a35050565b6104f5806200237e83390190565b600073ffffffffffffffffffffffffffffffffffffffff82169050919050565b60006200192c82620018ff565b9050919050565b6200193e816200191f565b82525050565b60006020820190506200195b600083018462001933565b92915050565b600080fd5b62001971816200191f565b81146200197d57600080fd5b50565b600081359050620019918162001966565b92915050565b60008060408385031215620019b157620019b062001961565b5b6000620019c18582860162001980565b9250506020620019d48582860162001980565b9150509250929050565b6000819050919050565b620019f381620019de565b8114620019ff57600080fd5b50565b60008135905062001a1381620019e8565b92915050565b60006020828403121562001a325762001a3162001961565b5b600062001a428482850162001a02565b91505092915050565b60006020828403121562001a645762001a6362001961565b5b600062001a748482850162001980565b91505092915050565b62001a8881620019de565b82525050565b600060208201905062001aa5600083018462001a7d565b92915050565b600062ffffff82169050919050565b62001ac58162001aab565b82525050565b600060208201905062001ae2600083018462001aba565b92915050565b62001af38162001aab565b811462001aff57600080fd5b50565b60008135905062001b138162001ae8565b92915050565b60006020828403121562001b325762001b3162001961565b5b600062001b428482850162001b02565b91505092915050565b600082825260208201905092915050565b7f4f776e61626c653a2063616c6c6572206973206e6f7420746865206f776e6572600082015250565b600062001b9460208362001b4b565b915062001ba18262001b5c565b602082019050919050565b6000602082019050818103600083015262001bc78162001b85565b9050919050565b7f4d443a206e6f207a65726f206164647265737300000000000000000000000000600082015250565b600062001c0660138362001b4b565b915062001c138262001bce565b602082019050919050565b6000602082019050818103600083015262001c398162001bf7565b9050919050565b7f4d443a206e6f207a65726f20616d6f756e740000000000000000000000000000600082015250565b600062001c7860128362001b4b565b915062001c858262001c40565b602082019050919050565b6000602082019050818103600083015262001cab8162001c69565b9050919050565b600081519050919050565b600081905092915050565b60005b8381101562001ce857808201518184015260208101905062001ccb565b8381111562001cf8576000848401525b50505050565b600062001d0b8262001cb2565b62001d17818562001cbd565b935062001d2981856020860162001cc8565b80840191505092915050565b600062001d43828462001cfe565b915081905092915050565b600081905092915050565b7fff00000000000000000000000000000000000000000000000000000000000000600082015250565b600062001d9160018362001d4e565b915062001d9e8262001d59565b600182019050919050565b60008160601b9050919050565b600062001dc38262001da9565b9050919050565b600062001dd78262001db6565b9050919050565b62001df362001ded826200191f565b62001dca565b82525050565b6000819050919050565b6000819050919050565b62001e2262001e1c8262001df9565b62001e03565b82525050565b600062001e358262001d82565b915062001e43828662001dde565b60148201915062001e55828562001e0d565b60208201915062001e67828462001e0d565b602082019150819050949350505050565b7f4d443a2063616e6e6f7420626520425443000000000000000000000000000000600082015250565b600062001eb060118362001b4b565b915062001ebd8262001e78565b602082019050919050565b6000602082019050818103600083015262001ee38162001ea1565b9050919050565b7f4d443a2063616e6e6f74206265204252494447455f544f4b454e000000000000600082015250565b600062001f22601a8362001b4b565b915062001f2f8262001eea565b602082019050919050565b6000602082019050818103600083015262001f558162001f13565b9050919050565b7f4d443a2063616e6e6f7420626520555344430000000000000000000000000000600082015250565b600062001f9460128362001b4b565b915062001fa18262001f5c565b602082019050919050565b6000602082019050818103600083015262001fc78162001f85565b9050919050565b7f4d443a2063616e6e6f7420626520555344540000000000000000000000000000600082015250565b60006200200660128362001b4b565b9150620020138262001fce565b602082019050919050565b60006020820190508181036000830152620020398162001ff7565b9050919050565b7f4d443a206e6f20706f6f6c20666f722074686973206173736574000000000000600082015250565b600062002078601a8362001b4b565b9150620020858262002040565b602082019050919050565b60006020820190508181036000830152620020ab8162002069565b9050919050565b7f4d443a206d61726b657420616c7265616479206465706c6f7965640000000000600082015250565b6000620020ea601b8362001b4b565b9150620020f782620020b2565b602082019050919050565b600060208201905081810360008301526200211d81620020db565b9050919050565b600062002132828462001dde565b60148201915081905092915050565b7f4d443a20616c7265616479206164646564000000000000000000000000000000600082015250565b60006200217960118362001b4b565b9150620021868262002141565b602082019050919050565b60006020820190508181036000830152620021ac816200216a565b9050919050565b7f4f776e61626c653a206e6577206f776e657220697320746865207a65726f206160008201527f6464726573730000000000000000000000000000000000000000000000000000602082015250565b60006200221160268362001b4b565b91506200221e82620021b3565b604082019050919050565b60006020820190508181036000830152620022448162002202565b9050919050565b7f4e487b7100000000000000000000000000000000000000000000000000000000600052603260045260246000fd5b600060608201905062002291600083018662001933565b620022a0602083018562001933565b620022af604083018462001aba565b949350505050565b600081519050620022c88162001966565b92915050565b600060208284031215620022e757620022e662001961565b5b6000620022f784828501620022b7565b91505092915050565b7f4e487b7100000000000000000000000000000000000000000000000000000000600052601160045260246000fd5b60006200233c82620019de565b91507fffffffffffffffffffffffffffffffffffffffffffffffffffffffffffffffff82141562002372576200237162002300565b5b60018201905091905056fe61014060405234801561001157600080fd5b5060003390508073ffffffffffffffffffffffffffffffffffffffff16632792949d6040518163ffffffff1660e01b8152600401602060405180830381865afa158015610062573d6000803e3d6000fd5b505050506040513d601f19601f82011682018060405250810190610086919061044e565b73ffffffffffffffffffffffffffffffffffffffff1660808173ffffffffffffffffffffffffffffffffffffffff16815250508073ffffffffffffffffffffffffffffffffffffffff16630d1ec4956040518163ffffffff1660e01b8152600401602060405180830381865afa158015610104573d6000803e3d6000fd5b505050506040513d601f19601f82011682018060405250810190610128919061044e565b73ffffffffffffffffffffffffffffffffffffffff1660a08173ffffffffffffffffffffffffffffffffffffffff16815250508073ffffffffffffffffffffffffffffffffffffffff166389a302716040518163ffffffff1660e01b8152600401602060405180830381865afa1580156101a6573d6000803e3d6000fd5b505050506040513d601f19601f820116820180604052508101906101ca919061044e565b73ffffffffffffffffffffffffffffffffffffffff1660c08173ffffffffffffffffffffffffffffffffffffffff16815250508073ffffffffffffffffffffffffffffffffffffffff1663c54e44eb6040518163ffffffff1660e01b8152600401602060405180830381865afa158015610248573d6000803e3d6000fd5b505050506040513d601f19601f8201168201806040525081019061026c919061044e565b73ffffffffffffffffffffffffffffffffffffffff1660e08173ffffffffffffffffffffffffffffffffffffffff16815250508073ffffffffffffffffffffffffffffffffffffffff1663bb2027936040518163ffffffff1660e01b8152600401602060405180830381865afa1580156102ea573d6000803e3d6000fd5b505050506040513d601f19601f8201168201806040525081019061030e919061044e565b73ffffffffffffffffffffffffffffffffffffffff166101008173ffffffffffffffffffffffffffffffffffffffff16815250508073ffffffffffffffffffffffffffffffffffffffff166338013f026040518163ffffffff1660e01b8152600401602060405180830381865afa15801561038d573d6000803e3d6000fd5b505050506040513d601f19601f820116820180604052508101906103b1919061044e565b73ffffffffffffffffffffffffffffffffffffffff166101208173ffffffffffffffffffffffffffffffffffffffff16815250505061047b565b600080fd5b600073ffffffffffffffffffffffffffffffffffffffff82169050919050565b600061041b826103f0565b9050919050565b61042b81610410565b811461043657600080fd5b50565b60008151905061044881610422565b92915050565b600060208284031215610464576104636103eb565b5b600061047284828501610439565b91505092915050565b60805160a05160c05160e0516101005161012051603f6104b6600039600050506000505060005050600050506000505060005050603f6000f3fe6080604052600080fdfea26469706673582212209c529646d71be13ddcd95e6da3e870e48690c6b31392aaf38d2619d51482d43f64736f6c634300080c0033a26469706673582212206de3de26362b9f56344be2538deec9df0e214d02525aac211b95e4b96664c74764736f6c634300080c0033",
  "linkReferences": {},
  "deployedLinkReferences": {}
}